:100000000C942A000C9447000C9447000C94470071
:100010000C9447000C9447000C9447000C94470044
:100020000C9447000C9447000C940F020C94E801C8
:100030000C94BE010C9437030C9447000C945E039F
:100040000C9447000C9447000C9447000C94470014
:100050000C94470011241FBECFE5D8E0DEBFCDBF12
:1000600010E0A0E6B0E0E6E8F7E002C005900D92EF
:10007000A036B107D9F720E0A0E6B0E001C01D929C
:10008000AF38B207E1F70E9449000C94C1030C9409
:100090000000CF93DF93CDB7DEB727970FB6F89464
:1000A000DEBF0FBECDBF198286E08C8380E28B83DA
:1000B00080E48A831D821F821E82CE0101960E94E7
:1000C0003901E4E6F0E089E190E0A0E0B0E082836D
:1000D0009383A483B58311861086138612861586B2
:1000E000148683E090E09783868311821082CF018B
:1000F0000E94360240E064E870E080E00E947D01EA
:1001000020918400309185004091860050918700B5
:10011000A8E8B3E10E94A7030F2EC12CF8E2DF2E5E
:10012000E12CF12CF02DA70196010E94850320936C
:10013000800030938100409382005093830040E020
:1001400064E870E081E00E947D012091840030919C
:1001500085004091860050918700A8E8B3E10E9495
:10016000A703A70196010E94850320937C0030938A
:100170007D0040937E0050937F0040E064E870E093
:1001800082E00E947D0120918400309185004091A1
:10019000860050918700A8E8B3E10E94A7030F2EC4
:1001A000C12CF8ECDF2EE12CF12CF02DA7019601EB
:1001B0000E9485032093740030937500409376006D
:1001C0005093770040E064E870E083E00E947D0196
:1001D00020918400309185004091860050918700E5
:1001E000A8E8B3E10E94A703A70196010E94850336
:1001F000209378003093790040937A0050937B00ED
:1002000061E0809180000E942A032FEF80E792E056
:10021000215080409040E1F700C0000061E08091F3
:100220007C000E942A032FEF80E792E0215080405B
:100230009040E1F700C0000061E0809174000E94EE
:100240002A032FEF80E792E0215080409040E1F7B1
:1002500000C0000061E0809178000E942A032FEF27
:1002600080E792E0215080409040E1F700C000001C
:1002700041CFCF93DF93EC0187E0FE01A8E8B0E027
:1002800001900D928A95E1F796B18881892B86B904
:1002900096B18C81892B86B997B18A81892B87B9D0
:1002A00097B18B81892B87B997B18981892B87B9C0
:1002B0008C81883019F48FB780688FBF86B18068D1
:1002C00086B9288130E046B181E090E002C0880F15
:1002D000991F4A95E2F799272817390719F486B12B
:1002E000806486B9DF91CF91089580918800811153
:1002F00003C086B1806486B908951F93CF93DF93BE
:10030000EB01142F97B1907E97B997B1982B97B9BD
:100310004AB321E030E0B90102C0660F771F8A9529
:10032000E2F7CB01809584238ABB0E9475011111ED
:1003300002C0349BFECF80918A0081110AC024B193
:1003400085B1837090E0982F8827822B99838883CA
:100350000EC024B1229526952695237085B190E094
:10036000880F991F880F991F822B9983888386B1E4
:100370008F7E86B9DF91CF911F9108951F920F92C2
:100380000FB60F9211242F933F934F935F936F9368
:100390007F938F939F93AF93BF93EF93FF93E091DE
:1003A0006000F09161000088F189E02D0995FF91CE
:1003B000EF91BF91AF919F918F917F916F915F91DD
:1003C0004F913F912F910F900FBE0F901F90189556
:1003D0001F920F920FB60F9211242F933F934F93BA
:1003E0005F936F937F938F939F93AF93BF93EF939D
:1003F000FF93E0916200F09163000995FF91EF9106
:10040000BF91AF919F918F917F916F915F914F912C
:100410003F912F910F900FBE0F901F9018951F9234
:100420000F920FB60F9211242F933F934F935F9328
:100430006F937F938F939F93AF93BF93EF93FF93AC
:10044000E0916200F09163000995FF91EF91BF91F7
:10045000AF919F918F917F916F915F914F913F915C
:100460002F910F900FBE0F901F901895FC01828165
:1004700089B980819181009739F480B5806880BD09
:1004800080B58F7B80BD09C08034910531F480B583
:10049000806880BD80B5806480BD8BB18D7F8BB955
:1004A00080859185009751F480B5806880BD80B5C6
:1004B0008F7E80BD80B58F7D80BD18C08130910555
:1004C00051F480B5806880BD80B58F7E80BD80B5D9
:1004D000806280BD0BC0029749F480B5806880BD02
:1004E00080B5806180BD80B5806280BD8285938546
:1004F000009739F480B5806880BD80B5877F80BD66
:1005000008C0019731F480B5806880BD80B58860EF
:1005100080BD868197818230910531F128F4009762
:1005200049F00197A1F046C08330910551F104973D
:10053000A9F140C080B5806880BD80B58D7F80BD49
:1005400080B58B7F80BD8AB18B7F8AB933C080B57F
:10055000806880BD80B5826080BD80B58B7F80BDA6
:100560008AB18B7F8AB926C080B5806880BD80B58E
:100570008D7F80BD80B5846080BD8AB18B7F8AB954
:1005800019C080B5806880BD80B5826080BD80B5AF
:10059000846080BD8AB18B7F8AB90CC080B58068C9
:1005A00080BD80B5826080BD80B5846080BD8AB129
:1005B00084608AB9848595850097C1F1019779F4A3
:1005C0008AB18F778AB98AB180648AB9868597851E
:1005D00090936300809362008FB780688FBF84859B
:1005E0009585029779F48AB180688AB98AB18F7B40
:1005F0008AB98685978590936300809362008FB750
:1006000080688FBF848595850397E9F48AB18068F7
:100610008AB98AB180648AB9868597859093630088
:10062000809362008FB780688FBF0DC08AB18F77CB
:100630008AB98AB18F7B8AB91092630010926200E6
:100640008FB78F778FBF8AB188608AB98AB180618E
:100650008AB90895613011F45D9BFECF529B05C0AD
:100660009AB19E7F9AB98CB908958CB908951F925A
:100670000F920FB60F9211242F933F934F935F93D6
:100680006F937F938F939F93AF93BF93EF93FF935A
:10069000E0916200F09163000995FF91EF91BF91A5
:1006A000AF919F918F917F916F915F914F913F910A
:1006B0002F910F900FBE0F901F9018951F920F92C1
:1006C0000FB60F9211242F933F934F935F936F9325
:1006D0007F938F939F93AF93BF93EF93FF93E0919B
:1006E0006200F09163000995FF91EF91BF91AF9186
:1006F0009F918F917F916F915F914F913F912F913A
:100700000F900FBE0F901F901895A1E21A2EAA1BF2
:10071000BB1BFD010DC0AA1FBB1FEE1FFF1FA217B1
:10072000B307E407F50720F0A21BB30BE40BF50BAE
:10073000661F771F881F991F1A9469F76095709537
:10074000809590959B01AC01BD01CF0108950E9459
:10075000B203A59F900DB49F900DA49F800D911D95
:1007600011240895A29FB001B39FC001A39F700DF3
:10077000811D1124911DB29F700D811D1124911DA9
:060780000895F894FFCF7C
:00000001FF
