:100000000C942A000C9447000C9447000C94470071
:100010000C9447000C9447000C9447000C94470044
:100020000C9447000C9447000C946E050C94470503
:100030000C94D9040C9496060C9447000C94BD06BD
:100040000C9447000C9447000C9447000C94470014
:100050000C94470011241FBECFE5D8E0DEBFCDBF12
:1000600010E0A0E6B0E0EAE2F8E102C005900D92EF
:10007000A439B107D9F720E0A4E9B0E001C01D928E
:10008000A03DB207E1F70E9487030C94130C0C9477
:10009000000040E061E082E00E944F0440E062E046
:1000A00082E00E944F0440E064E082E00E944F043E
:1000B00040E068E082E00E944F0440E060E182E0BE
:1000C0000E944F0440E060E282E00E944F0440E062
:1000D00060E482E00E944F0440E064E082E00E941D
:1000E000A00440E061E082E00E94A00440E062E001
:1000F00082E00E94A004089541E064E082E00E9452
:10010000A00483EF91E00197F1F700C0000040E008
:1001100064E082E00E94A0040895CF93C82F84FB7E
:10012000442740F968E082E00E94A004C5FB442710
:1001300040F960E182E00E94A004C6FB442740F938
:1001400060E282E00E94A0044C2F441F4427441F19
:1001500060E482E00E94A00440E062E082E00E944D
:10016000A00440E061E082E00E94A0040E947C00C4
:100170004C2F417068E082E00E94A004C1FB44273C
:1001800040F960E182E00E94A004C2FB442740F9EC
:1001900060E282E00E94A004C3FB442740F960E4CF
:1001A00082E00E94A00440E062E082E00E94A0049D
:1001B00040E061E082E00E94A0040E947C00CF91B8
:1001C000089581E00E948D000895CF93DF93C82F9A
:1001D000D62F813031F4603120F480E8860F0E9400
:1001E0008D00C23031F4D03120F480EC8D0F0E94AC
:1001F0008D00DF91CF91089587E893E10197F1F7A2
:1002000000C000000E94490085EA9EE00197F1F7D6
:1002100000C0000082E00E948D0088E20E948D00F4
:1002200086E00E948D0080E80E948D008FE00E9491
:100230008D000895CF93C82F84FB442740F968E0D0
:1002400082E00E94A004C5FB442740F960E182E0FF
:100250000E94A004C6FB442740F960E282E00E94AD
:10026000A0044C2F441F4427441F60E482E00E94F6
:10027000A00440E062E082E00E94A00441E061E06E
:1002800082E00E94A0040E947C004C2F417068E034
:1002900082E00E94A004C1FB442740F960E182E0B3
:1002A0000E94A004C2FB442740F960E282E00E9461
:1002B000A004C3FB442740F960E482E00E94A0044C
:1002C00040E062E082E00E94A00441E061E082E060
:1002D0000E94A0040E947C00CF9108950F931F9369
:1002E000CF93DF938C01C0E0D0E018C021960F5F60
:1002F0001F4F0E941A01C031D10529F460E082E04D
:100300000E94E5000BC0C032D10541F40E94E1001B
:1003100060E081E00E94E500C0E0D0E0F80180816B
:100320008111E4CFDF91CF911F910F910895CF926A
:10033000DF92EF92FF920F931F93CF93DF93CDB78E
:10034000DEB72A970FB6F894DEBF0FBECDBF40E0F0
:1003500060EC70E080E00E940E042091C0003091BB
:10036000C1004091C2005091C300A8E8B3E10E94CF
:100370000F090F2EC12CF8E2DF2EE12CF12CF02D0D
:10038000A70196010E94ED082093B4003093B500B8
:100390004093B6005093B70040E060EC70E081E01D
:1003A0000E940E042091C0003091C1004091C20013
:1003B0005091C300A8E8B3E10E940F09A70196017C
:1003C0000E94ED082093B0003093B1004093B2003A
:1003D0005093B30040E060EC70E082E00E940E04B5
:1003E0002091C0003091C1004091C2005091C300E3
:1003F000A8E8B3E10E940F090F2EC12CF8ECDF2E04
:10040000E12CF12CF02DA70196010E94ED0820931C
:10041000A8003093A9004093AA005093AB0040E09D
:1004200060EC70E083E00E940E042091C0003091E7
:10043000C1004091C2005091C300A8E8B3E10E94FE
:100440000F09A70196010E94ED082093AC0030939C
:10045000AD004093AE005093AF0040E060EC70E020
:1004600084E00E940E046091C0007091C1008091F0
:10047000C2009091C3000E94F20720E030E040EA01
:1004800050E40E94800820E030E040E85AE30E94F7
:1004900080082DEC3CEC4CE45FE30E94E4062FE87E
:1004A00032EC45EF5CE30E9451070E94C307609362
:1004B000B8007093B9008093BA009093BB0040E0FD
:1004C00060EC70E085E00E940E042091C000309145
:1004D000C1004091C2005091C300AFEFB0E00E9454
:1004E0000F092FEF33E040E050E00E94ED08209329
:1004F000BC003093BD004093BE005093BF00822FDC
:1005000080950E943C0560E081E00E94E50080E665
:1005100090E00E946E018091B7008F938091B600A9
:100520008F938091B5008F938091B4008F930F2E9D
:10053000F7E6EF2EF0E0FF2EF02DFF92EF928E0106
:100540000F5F1F4F1F930F930E942909C8010E943C
:100550006E018AE690E00E946E018091B3008F9355
:100560008091B2008F938091B1008F938091B00001
:100570008F93FF92EF921F930F930E942909C80156
:100580000E946E0160E082E00E94E50082E790E058
:100590000E946E018091AB008F938091AA008F938F
:1005A0008091A9008F938091A8008F93FF92EF9282
:1005B0001F930F930E942909C8010E946E018AE7C8
:1005C00090E00E946E018091AF008F938091AE0009
:1005D0008F938091AD008F938091AC008F93FF92A9
:1005E000EF921F930F930E9429090FB6F894DEBF74
:1005F0000FBECDBFC8010E946E0160E084E00E9482
:10060000E50083E890E00E946E018091BB008F932B
:100610008091BA008F938091B9008F938091B80038
:100620008F93FF92EF921F930F930E942909C801A5
:100630000E946E0188E890E00E946E010FB6F89467
:10064000DEBF0FBECDBF2A960FB6F894DEBF0FBE39
:10065000CDBFDF91CF911F910F91FF90EF90DF9071
:10066000CF9008958091B4009091B500A091B6000C
:10067000B091B7008E329105A105B10528F061E077
:1006800085E60E94890608C04997A105B10520F4B6
:1006900061E086E60E9489068091B0009091B100E9
:1006A000A091B200B091B3008E329105A105B105C1
:1006B00028F061E087E60E94890608C04997A105F5
:1006C000B10520F461E088E60E9489068091A800C7
:1006D0009091A900A091AA00B091AB00C297A1058A
:1006E000B10520F461E08AE60E9489068091AC00A1
:1006F0009091AD00A091AE00B091AF00C297A1055E
:10070000B10520F461E08BE60E9489060895CF933D
:10071000DF93CDB7DEB72C970FB6F894DEBF0FBED0
:10072000CDBF88E6898382E08A831D821C821B827A
:10073000CE0101960E9403050E94FC001E8286E005
:10074000898780E2888780E48F831A861C861B86CF
:10075000CE0106960E94CA03E8E9F0E089E190E044
:10076000A0E0B0E082839383A483B58311861086D2
:10077000138612861586148683E090E0978386831D
:1007800011821082CF010E9495050E9497010E945C
:100790003203FBCFCF93DF93EC0187E0FE01A4ECA3
:1007A000B0E001900D928A95E1F796B18881892B8E
:1007B00086B996B18C81892B86B997B18A81892BAC
:1007C00087B997B18B81892B87B997B18981892B9B
:1007D00087B98C81883019F48FB780688FBF86B154
:1007E000806886B9288130E046B181E090E002C09F
:1007F000880F991F4A95E2F799272817390719F4A6
:1008000086B1806486B9DF91CF9108958091C4004C
:10081000811103C086B1806486B908951F93CF9378
:10082000DF93EB01142F97B1907E97B997B1982B76
:1008300097B94AB321E030E0B90102C0660F771FD3
:100840008A95E2F7CB01809584238ABB0E94060437
:10085000111102C0349BFECF8091C60081110AC0E5
:1008600024B185B1837090E0982F8827822B9983DB
:1008700088830EC024B1229526952695237085B1D4
:1008800090E0880F991F880F991F822B9983888386
:1008900086B18F7E86B9DF91CF911F910895442351
:1008A00019F0413049F10895813071F028F082301B
:1008B00099F08330C9F008958AB3862B8ABB8BB335
:1008C000609568236BBB089587B3862B87BB88B37D
:1008D0006095682368BB089584B3862B84BB85B379
:1008E0006095682365BB089581B3862B81BB82B375
:1008F0006095682362BB0895813069F028F08230EA
:1009000089F08330B1F008958AB3862B8ABB8BB30C
:10091000682B6BBB089587B3862B87BB88B3682B86
:1009200068BB089584B3862B84BB85B3682B65BBF5
:10093000089581B3862B81BB82B3682B62BB089577
:10094000442319F04130E9F00895813059F028F03E
:10095000823069F0833081F008958BB3609568230D
:100960006BBB089588B36095682368BB089585B311
:100970006095682365BB089582B36095682362BB68
:100980000895813051F028F0823059F0833069F0B9
:1009900008958BB3682B6BBB089588B3682B68BB35
:1009A000089585B3682B65BB089582B3682B62BB3D
:1009B00008951F920F920FB60F9211242F933F9319
:1009C0004F935F936F937F938F939F93AF93BF9357
:1009D000EF93FF93E0919400F09195000088F189E6
:1009E000E02D0995FF91EF91BF91AF919F918F916C
:1009F0007F916F915F914F913F912F910F900FBE1B
:100A00000F901F901895CF93DF93EC0185E0FE01C6
:100A1000ABECB0E001900D928A95E1F793B7888135
:100A2000892B83BF8881883711F0883619F487B302
:100A3000886087BB93B78981892B83BF8981865062
:100A4000823018F487B38E7F87BB99B78A81892B50
:100A500089BF8A81882321F08FB780688FBF03C048
:100A60008FB78F778FBF8B819C81909397008093F6
:100A70009600DF91CF9108959091CB00983611F4B4
:100A80008CBF0895983711F480958CBF08951F92FC
:100A90000F920FB60F9211242F933F934F935F93B2
:100AA0006F937F938F939F93AF93BF93EF93FF9336
:100AB000E0919600F09197000995FF91EF91BF9119
:100AC000AF919F918F917F916F915F914F913F91E6
:100AD0002F910F900FBE0F901F9018951F920F929D
:100AE0000FB60F9211242F933F934F935F936F9301
:100AF0007F938F939F93AF93BF93EF93FF93E09177
:100B00009600F09197000995FF91EF91BF91AF91F9
:100B10009F918F917F916F915F914F913F912F9115
:100B20000F900FBE0F901F901895FC01828189B91C
:100B300080819181009739F480B5806880BD80B54F
:100B40008F7B80BD09C08034910531F480B5806809
:100B500080BD80B5806480BD8BB18D7F8BB9808571
:100B60009185009751F480B5806880BD80B58F7EF7
:100B700080BD80B58F7D80BD18C08130910551F456
:100B800080B5806880BD80B58F7E80BD80B5806275
:100B900080BD0BC0029749F480B5806880BD80B5E8
:100BA000806180BD80B5806280BD8285938500971D
:100BB00039F480B5806880BD80B5877F80BD08C06E
:100BC000019731F480B5806880BD80B5886080BDB4
:100BD000868197818230910531F128F4009749F0A0
:100BE0000197A1F046C08330910551F10497A9F116
:100BF00040C080B5806880BD80B58D7F80BD80B5E8
:100C00008B7F80BD8AB18B7F8AB933C080B5806805
:100C100080BD80B5826080BD80B58B7F80BD8AB18C
:100C20008B7F8AB926C080B5806880BD80B58D7FF6
:100C300080BD80B5846080BD8AB18B7F8AB919C0C0
:100C400080B5806880BD80B5826080BD80B58460DD
:100C500080BD8AB18B7F8AB90CC080B5806880BDA9
:100C600080B5826080BD80B5846080BD8AB18460BB
:100C70008AB9848595850097C1F1019779F48AB185
:100C80008F778AB98AB180648AB98685978590936F
:100C90009700809396008FB780688FBF8485958575
:100CA000029779F48AB180688AB98AB18F7B8AB950
:100CB0008685978590939700809396008FB780687C
:100CC0008FBF848595850397E9F48AB180688AB9D6
:100CD0008AB180648AB986859785909397008093BE
:100CE00096008FB780688FBF0DC08AB18F778AB9A1
:100CF0008AB18F7B8AB910929700109296008FB7B5
:100D00008F778FBF8AB188608AB98AB180618AB9CA
:100D10000895613011F45D9BFECF529B05C09AB1DE
:100D20009E7F9AB98CB908958CB908951F920F923D
:100D30000FB60F9211242F933F934F935F936F93AE
:100D40007F938F939F93AF93BF93EF93FF93E09124
:100D50009600F09197000995FF91EF91BF91AF91A7
:100D60009F918F917F916F915F914F913F912F91C3
:100D70000F900FBE0F901F9018951F920F920FB6F5
:100D80000F9211242F933F934F935F936F937F9311
:100D90008F939F93AF93BF93EF93FF93E091960050
:100DA000F09197000995FF91EF91BF91AF919F91BD
:100DB0008F917F916F915F914F913F912F910F9004
:100DC0000FBE0F901F9018955058BB27AA270E945E
:100DD000FC060C9446080E94380838F00E943F0830
:100DE00020F039F49F3F19F426F40C9435080EF4E2
:100DF000E095E7FB0C942F08E92F0E94570858F361
:100E0000BA17620773078407950720F079F4A6F5EF
:100E10000C9479080EF4E0950B2EBA2FA02D0B013F
:100E2000B90190010C01CA01A0011124FF27591B2F
:100E300099F0593F50F4503E68F11A16F040A22F35
:100E4000232F342F4427585FF3CF469537952795A6
:100E5000A795F0405395C9F77EF41F16BA0B620BA5
:100E6000730B840BBAF09150A1F0FF0FBB1F661FEC
:100E7000771F881FC2F70EC0BA0F621F731F841F2F
:100E800048F4879577956795B795F7959E3F08F055
:100E9000B0CF9395880F08F09927EE0F9795879517
:100EA00008950E9465070C9446080E943F0858F078
:100EB0000E94380840F029F45F3F29F00C942F0875
:100EC00051110C947A080C9435080E94570868F365
:100ED0009923B1F3552391F3951B550BBB27AA27F3
:100EE00062177307840738F09F5F5F4F220F331F2D
:100EF000441FAA1FA9F335D00E2E3AF0E0E832D0F5
:100F000091505040E695001CCAF72BD0FE2F29D0F7
:100F1000660F771F881FBB1F261737074807AB07C9
:100F2000B0E809F0BB0B802DBF01FF2793585F4F3E
:100F30003AF09E3F510578F00C942F080C947A08F3
:100F40005F3FE4F3983ED4F3869577956795B79520
:100F5000F7959F5FC9F7880F911D9695879597F92B
:100F60000895E1E0660F771F881FBB1F62177307A4
:100F70008407BA0720F0621B730B840BBA0BEE1FB9
:100F800088F7E09508950E945F0888F09F5798F0D1
:100F9000B92F9927B751B0F0E1F0660F771F881F7E
:100FA000991F1AF0BA95C9F714C0B13091F00E9498
:100FB0007908B1E008950C947908672F782F882775
:100FC000B85F39F0B93FCCF3869577956795B395BF
:100FD000D9F73EF490958095709561957F4F8F4F2E
:100FE0009F4F0895E89409C097FB3EF49095809533
:100FF000709561957F4F8F4F9F4F9923A9F0F92FDF
:1010000096E9BB279395F695879577956795B7955C
:10101000F111F8CFFAF4BB0F11F460FF1BC06F5F42
:101020007F4F8F4F9F4F16C0882311F096E911C054
:10103000772321F09EE8872F762F05C0662371F075
:1010400096E8862F70E060E02AF09A95660F771F89
:10105000881FDAF7880F9695879597F9089597F97D
:101060009F6780E870E060E008959FEF80EC08954E
:1010700000240A9416161706180609060895002477
:101080000A9412161306140605060895092E0394F1
:10109000000C11F4882352F0BB0F40F4BF2B11F465
:1010A00060FF04C06F5F7F4F8F4F9F4F089557FDC4
:1010B0009058440F551F59F05F3F71F04795880FC6
:1010C00097FB991F61F09F3F79F08795089512165D
:1010D00013061406551FF2CF4695F1DF08C0161609
:1010E00017061806991FF1CF8695710561050894BA
:1010F0000895E894BB2766277727CB0197F90895D1
:101100000E9493080C9446080E94380838F00E9408
:101110003F0820F0952311F00C942F080C9435080B
:1011200011240C947A080E94570870F3959FC1F31C
:10113000950F50E0551F629FF001729FBB27F00D85
:10114000B11D639FAA27F00DB11DAA1F649F6627DA
:10115000B00DA11D661F829F2227B00DA11D621F29
:10116000739FB00DA11D621F839FA00D611D221FE3
:10117000749F3327A00D611D231F849F600D211DC7
:10118000822F762F6A2F11249F5750409AF0F1F04A
:1011900088234AF0EE0FFF1FBB1F661F771F881FB3
:1011A00091505040A9F79E3F510580F00C942F08B4
:1011B0000C947A085F3FE4F3983ED4F386957795D4
:1011C0006795B795F795E7959F5FC1F7FE2B880F59
:1011D000911D9695879597F90895A1E21A2EAA1B5D
:1011E000BB1BFD010DC0AA1FBB1FEE1FFF1FA217D7
:1011F000B307E407F50720F0A21BB30BE40BF50BD4
:10120000661F771F881F991F1A9469F7609570955C
:10121000809590959B01AC01BD01CF0108950E947E
:101220001A09A59F900DB49F900DA49F800D911D4C
:1012300011240895A29FB001B39FC001A39F700D18
:10124000811D1124911DB29F700D811D1124911DCE
:101250000895AEE0B0E0EFE2F9E00C94EA0B0D89FE
:101260001E8986E08C831A8309838FEF9FE79E8314
:101270008D83AE01475E5F4F6F89788DCE010196F9
:101280000E944B09EF81F885E00FF11F10822E9626
:10129000E4E00C94060CABE0B0E0E1E5F9E00C947E
:1012A000DC0B6C017B018A01FC01178216828381B1
:1012B00081FFCCC1CE0101963C01F6019381F7017B
:1012C00093FD859193FF81917F01882309F4BAC131
:1012D000853239F493FD859193FF81917F018532A9
:1012E00029F4B60190E00E94420BE7CF912C212C0B
:1012F000312CFFE1F315D8F08B3279F038F48032DD
:1013000079F08332A1F4232D20611DC08D3261F06C
:10131000803369F4232D216016C0832D8260382E1E
:10132000E32DE4603E2E2AC0F32DF8601DC037FC8B
:101330002DC020ED280F2A3040F08E32B9F436FC53
:1013400081C1232D2064322E19C036FE06C08AE0EA
:10135000989E200D1124922E11C0EAE02E9E200DA1
:101360001124222EF32DF0623F2E08C08C3621F47A
:10137000832D8068382E02C0883641F4F70193FD32
:10138000859193FF81917F018111B3CF982F9F7D2C
:101390009554933028F40C5F1F4F9FE399830DC041
:1013A000833631F0833771F0833509F059C021C09D
:1013B000F801808189830E5F1F4F88248394912CCC
:1013C000530113C02801F2E04F0E511CF801A08018
:1013D000B18036FE03C0692D70E002C06FEF7FEF71
:1013E000C5010E94370B4C018201F32DFF773F2E80
:1013F00016C0280122E0420E511CF801A080B180E5
:1014000036FE03C0692D70E002C06FEF7FEFC501AB
:101410000E942C0B4C01F32DF0683F2E820133FC0F
:101420001BC0822D90E088169906B0F4B60180E2C8
:1014300090E00E94420B2A94F4CFF50137FC85918D
:1014400037FE81915F01B60190E00E94420B2110AE
:101450002A9421E0821A91088114910471F7E8C05E
:10146000843611F0893641F5F80137FE07C06081F6
:101470007181828193810C5F1F4F08C060817181EF
:10148000072E000C880B990B0E5F1F4FF32DFF7674
:101490003F2E97FF09C090958095709561957F4F7D
:1014A0008F4F9F4FF0683F2E2AE030E0A3010E944B
:1014B0007E0B882E861845C0853731F4232D2F7E6C
:1014C000B22E2AE030E025C0932D997FB92E8F36B9
:1014D000C1F018F4883579F0B5C0803719F0883735
:1014E00021F0B0C0E92FE061BE2EB4FE0DC0FB2D8F
:1014F000F460BF2E09C034FE0AC0292F2660B22E28
:1015000006C028E030E005C020E130E002C020E164
:1015100032E0F801B7FE07C060817181828193815A
:101520000C5F1F4F06C06081718180E090E00E5F0C
:101530001F4FA3010E947E0B882E8618FB2DFF777C
:101540003F2E36FE0DC0232D2E7FA22E891458F477
:1015500034FE0BC032FC09C0832D8E7EA82E05C040
:10156000B82CA32C03C0B82C01C0B92CA4FE0FC00A
:10157000FE01E80DF11D8081803321F49A2D997EC2
:10158000A92E09C0A2FE06C0B394B39404C08A2D4C
:10159000867809F0B394A3FC11C0A0FE06C0B21473
:1015A00088F4280C922C9B180EC0B21460F4B6017B
:1015B00080E290E00E94420BB394F7CFB21418F48B
:1015C0002B1802C0982C212CA4FE10C0B60180E379
:1015D00090E00E94420BA2FE17C0A1FC03C088E766
:1015E00090E002C088E590E0B6010CC08A2D8678B4
:1015F00059F0A1FE02C08BE201C080E2A7FC8DE29F
:10160000B60190E00E94420B891438F4B60180E3E1
:1016100090E00E94420B9A94F7CF8A94F301E80D70
:10162000F11D8081B60190E00E94420B8110F5CF40
:10163000222009F442CEB60180E290E00E94420BE3
:101640002A94F6CFF6018681978102C08FEF9FEF33
:101650002B96E2E10C94F80BFC0105906150704070
:101660000110D8F7809590958E0F9F1F0895FC016B
:101670006150704001900110D8F7809590958E0FC1
:101680009F1F08950F931F93CF93DF93FB01238137
:1016900021FD03C08FEF9FEF2CC022FF16C04681B3
:1016A0005781248135814217530744F4A081B181C9
:1016B0009D012F5F3F4F318320838C93268137819B
:1016C0002F5F3F4F3783268314C08B01EC01FB0152
:1016D0000084F185E02D0995892BE1F6D801169655
:1016E0008D919C911797019617969C938E931697C0
:1016F000CE01DF91CF911F910F910895FA01AA2792
:10170000283051F1203181F1E8946F936E7F6E5F44
:101710007F4F8F4F9F4FAF4FB1E03ED0B4E03CD0F2
:10172000670F781F891F9A1FA11D680F791F8A1FD5
:10173000911DA11D6A0F711D811D911DA11D20D03C
:1017400009F468943F912AE0269F11243019305DF6
:101750003193DEF6CF010895462F4770405D4193E7
:10176000B3E00FD0C9F7F6CF462F4F70405D4A3334
:1017700018F0495D31FD4052419302D0A9F7EACFFC
:10178000B4E0A6959795879577956795BA95C9F72B
:1017900000976105710508959B01AC010A2E06941E
:1017A0005795479537952795BA95C9F7620F731FD7
:1017B000841F951FA01D08952F923F924F925F9214
:1017C0006F927F928F929F92AF92BF92CF92DF9251
:1017D000EF92FF920F931F93CF93DF93CDB7DEB7B6
:1017E000CA1BDB0B0FB6F894DEBF0FBECDBF09944A
:1017F0002A88398848885F846E847D848C849B84A1
:10180000AA84B984C884DF80EE80FD800C811B81AE
:10181000AA81B981CE0FD11D0FB6F894DEBF0FBEDD
:0A182000CDBFED010895F894FFCF4D
:10182A005254454D503D00256400204C54454D50BE
:10183A003D005257415445523D00204C57415445B2
:10184A00523D004849483D002020202020202020E9
:04185A00202020002A
:00000001FF
