:020000040800F2
:1000000000500020651C0008B51C0008B51C000845
:10001000B51C0008B51C0008B51C00080000000055
:10002000000000000000000000000000B51C0008F7
:10003000B51C000800000000B51C0008B51C000835
:10004000B51C0008B51C0008B51C0008B51C00084C
:10005000B51C0008B51C0008C5080008E908000820
:100060000D0900083109000855090008B51C0008F1
:10007000B51C0008B51C0008B51C0008B51C00081C
:10008000B51C0008B51C00080D050008B51C0008CB
:10009000B51C0008B51C0008B51C0008790900084B
:1000A000BD12000875120008E1120008991200083C
:1000B000610D0008410E0008110F0008B51C000872
:1000C000B51C0008B51C0008B51C0008A5100008E8
:1000D000B51C000889180008AD180008D1180008E0
:1000E000210A0008B51C000800000000B51C00082B
:1000F000B51C0008B51C0008B51C0008B51C00089C
:10010000B51C0008B51C0008B51C0008B51C00088B
:10011000B51C0008B51C0008B51C0008B51C00087B
:10012000B51C0008B51C0008B51C0008B51C00086B
:1001300010B5054C237833B9044B13B10448AFF321
:1001400000800123237010BD740000200000000017
:10015000001D000808B5034B1BB103490348AFF36A
:10016000008008BD0000000078000020001D00088D
:1001700080B485B000AF78600023FB600BE0002303
:10018000BB6002E0BB680133BB60BB68FE2BF9D9E2
:10019000FB680133FB60FA687B689A42EFD300BFCB
:1001A0001437BD4680BC704780B500AF354B0F2279
:1001B0001A80344B04229A70324B0122DA70314992
:1001C000314800F0A9FC2F4B0E221A802D4B04223F
:1001D0009A702C4B0122DA702A492B4800F09CFCC3
:1001E000284B0D221A80274B04229A70254B01229E
:1001F000DA702449244800F08FFC224B09221A802F
:10020000204B04229A701F4B0122DA701D491E48B0
:1002100000F082FC1B4B0A221A801A4B04229A70AF
:10022000184B0122DA701749174800F075FC154B7E
:1002300007221A80134B04229A70124B0122DA70A3
:100240001049114800F068FC0E4B0C221A800D4B2F
:1002500004229A700B4B0122DA700A490A4800F016
:100260005BFC00220D21084800F03EFD00220F211A
:10027000054800F039FD00220E21034800F034FD4E
:1002800000BF80BD30020020000C014080B500AFEF
:1002900001220D21064800F027FD0220FFF768FF2C
:1002A00000220D21024800F01FFD00BF80BD00BFED
:1002B000000C014080B582B000AF03460A46FB71D6
:1002C0001346BB71FB79012B08D1BB790F2B05D8E5
:1002D000BB79803BDBB2184600F02CF8FB79022B8F
:1002E00008D1BB790F2B05D8BB79403BDBB2184650
:1002F00000F020F800BF0837BD4680BD80B500AFD4
:100300001420FFF735FFFFF74FFF0F20FFF730FFF7
:10031000022000F00FF8282000F00CF8062000F072
:1003200009F8802000F006F80F2000F003F800BF65
:1003300080BD000080B582B000AF0346FB71FB7941
:100340001B09DBB203F00103DBB21A460921334873
:1003500000F0CAFCFB795B09DBB203F00103DBB2FE
:100360001A460A212D4800F0BFFCFB799B09DBB23D
:1003700003F00103DBB21A460721284800F0B4FC61
:10038000FB79DB09DBB21A460C21244800F0ACFCF7
:1003900000220E21214800F0A7FC00220F211F4857
:1003A00000F0A2FCFFF772FFFB7903F00103DBB260
:1003B0001A460921194800F097FCFB795B08DBB26B
:1003C00003F00103DBB21A460A21144800F08CFC4A
:1003D000FB799B08DBB203F00103DBB21A4607216D
:1003E0000E4800F081FCFB79DB08DBB203F001036F
:1003F000DBB21A460C21094800F076FC00220E21DF
:10040000064800F071FC00220F21044800F06CFC4B
:10041000FFF73CFF00BF0837BD4680BD000C014020
:1004200080B582B000AF0346FB71FB791B09DBB2DC
:1004300003F00103DBB21A460921334800F054FCF3
:10044000FB795B09DBB203F00103DBB21A460A2138
:100450002D4800F049FCFB799B09DBB203F0010356
:10046000DBB21A460721284800F03EFCFB79DB0985
:10047000DBB21A460C21244800F036FC00220E2183
:10048000214800F031FC01220F211F4800F02CFC14
:10049000FFF7FCFEFB7903F00103DBB21A460921EA
:1004A000194800F021FCFB795B08DBB203F0010383
:1004B000DBB21A460A21144800F016FCFB799B08AF
:1004C000DBB203F00103DBB21A4607210E4800F04D
:1004D0000BFCFB79DB08DBB203F00103DBB21A464D
:1004E0000C21094800F000FC00220E21064800F013
:1004F000FBFB01220F21044800F0F6FBFFF7C6FECC
:1005000000BF0837BD4680BD000C014080B500AF7C
:10051000134B1B68C3F34003DBB2012B0FD1104B0D
:100520005B6BC3F30403DBB219460E4A0B465B0058
:100530000B449B00134408331B6898470EE00A4B9A
:100540005B6BC3F30403DBB21946064A0B465B0040
:100550000B449B001344C8331B68984700BF80BD01
:1005600000240140900000200028014080B483B0A6
:1005700000AF0346FB71FB790F2B54D801A252F850
:1005800023F000BFC5050008D3050008E1050008F9
:10059000EF050008FD0500080B0600080B06000823
:1005A0000B0600080B0600080B06000819060008D9
:1005B000190600081906000819060008190600089F
:1005C000190600081A4B1B68194A43F040031360D0
:1005D00029E0174B1B68164A43F08003136022E0A2
:1005E000134B1B68124A43F4807313601BE0104BDB
:1005F0001B680F4A43F40073136014E00C4B1B6834
:100600000B4A43F4806313600DE0094B1B68084AF2
:1006100043F40003136006E0064B1B68054A43F4ED
:100620008073136000BF00BF0C37BD4680BC7047AD
:1006300000E100E004E100E080B483B000AF0346D5
:10064000FB71FB790F2B54D801A252F823F000BFA5
:10065000910600089F060008AD060008BB060008CA
:10066000C9060008D7060008D7060008D706000804
:10067000D7060008D7060008E5060008E5060008CA
:10068000E5060008E5060008E5060008E50600089E
:100690001A4B1B68194A23F04003136029E0174BDB
:1006A0001B68164A23F08003136022E0134B1B687B
:1006B000124A23F4807313601BE0104B1B680F4A2F
:1006C00023F40073136014E00C4B1B680B4A23F4F3
:1006D000806313600DE0094B1B68084A23F4000394
:1006E000136006E0064B1B68054A23F48073136011
:1006F00000BF00BF0C37BD4680BC704700E100E082
:1007000004E100E080B584B000AF7860654B9B6980
:10071000644A43F0010393617B681B889B089BB28A
:10072000FB737B681B88DBB203F00303DBB29B0027
:10073000BB730023BB607B681B893B810123BB72B9
:100740007B685B6807F108021146184600F0E4F97F
:100750007B681B7B002B0BD1534BDB687A681288BC
:10076000114601228A4011464F4A0B43D36029E0CB
:100770007B681B7B012B0BD14B4B9B687A681288E3
:10078000114601228A401146474A0B43936019E003
:100790007B681B7B022B15D1434BDB687A68128880
:1007A000114601228A4011463F4A0B43D3603E4B1B
:1007B0009B687A681288114601228A4011463A4A9B
:1007C0000B439360394AFB7B023352F82320BB7BF7
:1007D0000F2101FA03F3DB4318463449FB7B024047
:1007E000023341F82320314AFB7B023352F82320A5
:1007F0007B685B682E498B4216D07B685B682D490D
:100800008B420FD07B685B682B498B4208D07B689A
:100810005B682A498B4201D1042306E0002304E0EF
:10082000032302E0012300E00023B97B8B4018463C
:100830001E49FB7B0243023341F823207B681B885F
:1008400019467B681B691E4A42F821307B685B7B36
:10085000012B11D1144B1B687A68128811460122B2
:100860008A401146104A0B4313607B681B88DBB239
:100870001846FFF77BFE11E00B4B1B687A68128865
:10088000114601228A40D2431146074A0B401360A9
:100890007B681B88DBB21846FFF7CEFE00BF10371F
:1008A000BD4680BD00100240000401400000014030
:1008B00000080140000C01400010014000140140FC
:1008C0003402002080B500AF054B1B689847054BEC
:1008D0005B69044A43F00103536100BF80BD00BF60
:1008E000340200200004014080B500AF054B5B6876
:1008F0009847054B5B69044A43F00203536100BF0C
:1009000080BD00BF340200200004014080B500AF6C
:10091000054B9B689847054B5B69044A43F0040309
:10092000536100BF80BD00BF3402002000040140BD
:1009300080B500AF054BDB689847054B5B69044AFF
:1009400043F00803536100BF80BD00BF34020020A4
:100950000004014080B500AF054B1B699847054B6B
:100960005B69044A43F01003536100BF80BD00BFC0
:10097000340200200004014080B500AF264B5B69C3
:1009800003F02003002B08D0234B5B69224A43F07D
:1009900020035361214B5B6998471F4B5B6903F050
:1009A0004003002B08D01C4B5B691B4A43F04003FB
:1009B00053611A4B9B699847174B5B6903F080039F
:1009C000002B08D0144B5B69134A43F0800353613A
:1009D000124BDB699847104B5B6903F48073002B63
:1009E00008D00D4B5B690C4A43F4807353610B4B89
:1009F0001B6A9847084B5B6903F40073002B08D00F
:100A0000054B5B69044A43F400735361034B5B6A13
:100A1000984700BF80BD00BF0004014034020020A1
:100A200080B500AF2D4B5B6903F48063002B08D0C9
:100A30002A4B5B69294A43F480635361284B9B6AC4
:100A40009847264B5B6903F40063002B08D0234BC7
:100A50005B69224A43F400635361214BDB6A984788
:100A60001E4B5B6903F48053002B08D01B4B5B6962
:100A70001A4A43F480535361194B1B6B9847174B29
:100A80005B6903F40053002B08D0144B5B69134AD5
:100A900043F400535361124B5B6B98470F4B5B69F8
:100AA00003F48043002B08D00C4B5B690B4A43F4E2
:100AB000804353610A4B9B6B9847084B5B6903F477
:100AC0000043002B08D0054B5B69044A43F4004304
:100AD0005361034BDB6B984700BF80BD00040140AE
:100AE0003402002080B485B000AF0346FB80FB8851
:100AF000072B03D8FB889B009BB206E0FB8803F51D
:100B00007F5338339BB29B009BB2FB81FB89184615
:100B10001437BD4680BC704790B585B000AF786093
:100B200039607B686A4A934206D16A4B9B69694A7D
:100B300043F0040393612AE07B68674A934206D13D
:100B4000644B9B69634A43F0080393611FE07B6831
:100B5000624A934206D15F4B9B695E4A43F01003A1
:100B6000936114E07B685E4A934206D1594B9B69BE
:100B7000584A43F02003936109E07B68594A934245
:100B800005D1544B9B69534A43F0400393613B6842
:100B90001B889BB2072B01D87B6801E07B6804337C
:100BA000FB603B681B889BB21846FFF79BFF034620
:100BB0001A460F239340DA43FB681B681A40FB6810
:100BC0001A603B689B78DBB2002B0ED03B689B78A9
:100BD000DBB2012B09D03B689B78DBB2022B04D03F
:100BE0003B689B78DBB2032B56D13B689B78DBB22A
:100BF000032B1CD13B681B889BB21846FFF772FF82
:100C000003461A46082303FA02F2FB681B681A43DC
:100C1000FB681A603B681B889BB21A46012393400D
:100C2000DA437B68DB681A407B68DA604CE03B683B
:100C30009B78DBB2022B1CD13B681B889BB2184609
:100C4000FFF750FF03461A46082303FA02F2FB6837
:100C50001B681A43FB681A603B681B889BB21A46E4
:100C6000012303FA02F27B68DB681A437B68DA60CF
:100C70002AE03B689B78DBB29C003B681B889BB2F8
:100C80001846FFF72FFF034604FA03F2FB681B68C0
:100C90001A43FB681A6017E03B689B78DBB2043BA1
:100CA0009B003A68D278D2B243EA02043B681B88C0
:100CB0009BB21846FFF716FF034604FA03F2FB68DF
:100CC0001B681A43FB681A6000BF1437BD4690BD0D
:100CD0000008014000100240000C014000100140DB
:100CE000001401400018014080B483B000AF786068
:100CF0000B467B8013467B707B78DBB2012B0BD1DC
:100D00007B889BB21A46012303FA02F27B68DB68F8
:100D10001A437B68DA600AE07B889BB21A4601239B
:100D20009340DA437B68DB681A407B68DA6000BF77
:100D30000C37BD4680BC704780B483B000AF78608C
:100D40000B467B807B689B687A8892B2D3409BB2CB
:100D500003F001039BB218460C37BD4680BC7047B8
:100D600080B582B000AF4FF080431B69C3F300032E
:100D7000DBB2002B0BD07A68137843F001031370B9
:100D80004FF0804213696FF3000313614EE04FF0A0
:100D900080431B69C3F34003DBB2002B0BD07A689E
:100DA000137843F0020313704FF0804213696FF31E
:100DB000410313613AE04FF080431B69C3F38003A2
:100DC000DBB2002B0BD07A68137843F00403137066
:100DD0004FF0804213696FF38203136126E04FF0F6
:100DE00080431B69C3F3C003DBB2002B0BD07A68CE
:100DF000137843F0080313704FF0804213696FF3C8
:100E0000C303136112E04FF080431B69C3F3001367
:100E1000DBB2002B0AD07A68137843F0100313700A
:100E20004FF0804213696FF304131361034BDB68C7
:100E30007868984700BF0837BD4680BD7002002023
:100E400080B582B000AF304B1B69C3F30003DBB247
:100E5000002B0AD07A68137843F0010313702A4AF2
:100E600013696FF30003136146E0274B1B69C3F35B
:100E70004003DBB2002B0AD07A68137843F00203F8
:100E80001370214A13696FF34103136134E01E4B61
:100E90001B69C3F38003DBB2002B0AD07A68137896
:100EA00043F004031370184A13696FF3820313614C
:100EB00022E0154B1B69C3F3C003DBB2002B0AD041
:100EC0007A68137843F0080313700F4A13696FF3BD
:100ED000C303136110E00C4B1B69C3F30013DBB2B7
:100EE000002B09D07A68137843F010031370064A78
:100EF00013696FF304131361044BDB697868984737
:100F000000BF0837BD4680BD0004004070020020CD
:100F100080B582B000AF334B1B69C3F30003DBB273
:100F2000002B0AD07A68137843F0010313702D4A1E
:100F300013696FF3000313614BE02A4B1B69C3F382
:100F40004003DBB2002B0AD07A68137843F0020327
:100F50001370244A13696FF34103136139E0214B85
:100F60001B69C3F38003DBB2002B0FD07A681378C0
:100F700043F0040313701B4A13696FF38203136178
:100F80007A68137843F00103137022E0154B1B6954
:100F9000C3F3C003DBB2002B0AD07A68137843F0A6
:100FA000080313700F4A13696FF3C303136110E052
:100FB0000C4B1B69C3F30013DBB2002B09D07A681A
:100FC000137843F010031370064A13696FF3041388
:100FD0001361054BDB6A7868984700BF0837BD4648
:100FE00080BD00BF000800407002002080B400AF48
:100FF0000A4B5B689B0803F00303012B06D0012B0F
:1010000002D3022B04D005E0054B03E0054B01E0C1
:10101000054BFFE71846BD4680BC704700100240F4
:1010200000127A000024F400003FAB0180B500AF4D
:10103000FFF7DCFF0146054B5B681B0903F00F035C
:10104000034AD35C21FA03F3184680BD0010024026
:101050000800002080B500AFFFF7E8FF0146054B10
:101060005B681B0A03F00703034AD35C21FA03F30E
:10107000184680BD001002400000002080B500AF7F
:10108000FFF7D4FF0146054B5B68DB0A03F007035B
:10109000034AD35C21FA03F3184680BD00100240D6
:1010A0000000002080B582B000AF3B1D0549184606
:1010B00000F00CF8044BDB683879984700BF08371C
:1010C000BD4680BD003001401002002080B483B0D6
:1010D00000AF786039603B689B68C3F30003DBB204
:1010E000002B0FD07A6813786FF3000313707A68BF
:1010F000137843F0020313703A6813796FF3861381
:10110000137115E03B689B68C3F34003DBB2002B0F
:101110000ED07A68137843F0010313707A6813785D
:101120006FF3410313703A6813796FF3C7131371A8
:1011300000BF0C37BD4680BC7047000080B584B04E
:1011400000AF7860064B1B68FB6007F10C03194683
:101150000448FFF7E1FC00BF1037BD4680BD00BF6B
:10116000181D00080008014090B583B000AF7860FA
:1011700039603B4A3B6814460FCB84E80F00394A7C
:101180007B6813607B68384A934205D1374B9B6973
:10119000364A43F4006393613B681B881A467B68B8
:1011A0009A627A68136843F0800313603B685B8837
:1011B0001A467B68DA623B689B881A467B681A632A
:1011C0003B685B7A012B0ED0022B17D0002B1BD172
:1011D0007A6813686FF3461313607A6813686FF3C5
:1011E0000413136013E07A6813686FF346131360F7
:1011F0007A68136843F01003136008E07A68136894
:1012000043F06003136002E000F074FB00BF7868F5
:10121000FFF794FF7A68136843F0010313603B689B
:101220001B7A002B0BD17A68D36843F00103D3609B
:101230000F4B1B680E4A43F0007313600CE000BFB5
:101240007B681B69C3F30003DBB2002BF8D07A681C
:1012500013696FF30003136100BF0C37BD4690BDE7
:10126000AC020020BC020020002C01400010024013
:1012700000E100E080B500AF054BDB689847054B07
:101280001A6813696FF30003136100BF80BD00BFCC
:10129000AC020020BC02002080B500AF054BDB682B
:1012A0009847054B1A6813696FF34103136100BF38
:1012B00080BD00BFAC020020BC02002080B500AFA2
:1012C000054BDB689847054B1A6813696FF30003F9
:1012D000136100BF80BD00BFAC020020BC02002033
:1012E00080B500AF054BDB689847054B1A6813695A
:1012F0006FF30003136100BF80BD00BFAC0200208C
:10130000BC02002080B586B000AF0346FB80FFF72B
:10131000B5FE02460F4BA3FB02239B0C9BB2013B85
:101320009BB23B81FB88013B9BB27B810023BB814D
:101330000023FB8101233B7400237B7400237B612A
:1013400007F1080319460448FFF70EFF00BF1837DE
:10135000BD4680BD83DE1B43002C014080B584B0B8
:1013600000AF0346FB800023FB6006E04FF47A7079
:10137000FFF7C8FFFB680133FB60FB88FA689A42FD
:10138000F4D300BF1037BD4680BD80B584B000AF38
:101390000346FB800023FB6006E04FF47A70FFF702
:1013A000DDFFFB680133FB60FB88FA689A42F4D3E7
:1013B00000BF1037BD4680BDB0B582B000AF7860C9
:1013C00039607B68A94A93420CD1A94A3B6814460C
:1013D0000FCB84E80F00A74B9B69A64A43F48043D8
:1013E000936124E07B68A44A93420ED1A04B3A68F3
:1013F00003F1100413460FCB84E80F009D4BDB690B
:101400009C4A43F40033D36111E07B689B4A9342CA
:101410000DD1974B3A6803F1200413460FCB84E8B3
:101420000F00944BDB69934A43F48023D3617B68BC
:10143000DB6843F400527B68DA607B68DB683A68FB
:10144000127912031A437B68DA607B681B693A6879
:10145000D27912031A437B681A613B685B7A002BCE
:101460000BD17B68DB6843F008027B68DA607B683D
:10147000DB6843F004027B68DA603B681B7A032B6D
:1014800026D801A252F823F099140008A7140008E6
:10149000B5140008C31400087B685B6923F440722C
:1014A0007B685A6114E07B685B6943F480727B68F7
:1014B0005A610DE07B685B6943F400727B685A6196
:1014C00006E07B685B6943F440727B685A6100BF49
:1014D0007B68DB683A68527952021A437B68DA60AB
:1014E0003B689B79012B25D17B68604A934206D1EA
:1014F000634B1B68624A43F02003136014E07B686F
:101500005D4A934206D15E4B1B685D4A43F040033F
:10151000136009E07B68594A934205D1584B1B6818
:10152000574A43F0800313607B68DB6843F0200276
:101530007B68DA607B684D4A93422DD1FFF79EFDB0
:1015400002463B681B681B01B2FBF3F31C01FFF76B
:1015500095FD024613469B0013449A001A443B68CB
:101560001B689B00B2FBF3F5FFF788FD02463B6862
:101570001B681B01B2FBF3F3642202FB03F3EB1ABB
:101580001B01404AA2FB03235B0903F00F0344EA5B
:1015900003027B689A6062E07B68374A93422DD1F0
:1015A000FFF758FD02463B681B681B01B2FBF3F3D3
:1015B0001C01FFF74FFD024613469B0013449A009F
:1015C0001A443B681B689B00B2FBF3F5FFF742FD32
:1015D00002463B681B681B01B2FBF3F3642202FB6B
:1015E00003F3EB1A1B01274AA2FB03235B0903F059
:1015F0000F0344EA03027B689A6030E07B681F4A6D
:1016000093422CD1FFF726FD02463B681B681B0165
:10161000B2FBF3F31C01FFF71DFD024613469B00CE
:1016200013449A001A443B681B689B00B2FBF3F515
:10163000FFF710FD02463B681B681B01B2FBF3F38A
:10164000642202FB03F3EB1A1B010E4AA2FB0323E5
:101650005B0903F00F0344EA03027B689A60786831
:1016600000F09CF800BF0837BD46B0BD003801400F
:10167000C00200200010024000440040004800402A
:1016800004E100E01F85EB5180B485B000AF7860C5
:101690000B46FB700023FB607B68154A934202D126
:1016A000144BFB600CE07B68134A934202D1134B4E
:1016B000FB6005E07B68124A934201D1114BFB604D
:1016C00000BF7B681B6803F08003002BF9D0FB6828
:1016D0001B79012B03D1FA787B685A6002E0FA7813
:1016E0007B685A6000BF1437BD4680BC704700BF9E
:1016F00000380140C002002000440040D002002019
:1017000000480040E002002080B485B000AF78605F
:101710000023FB607B681B4A934202D11A4BFB609B
:101720000CE07B68194A934202D1194BFB6005E03B
:101730007B68184A934201D1174BFB60FB689B7989
:10174000002B07D100BF7B681B6803F02003002B30
:10175000F9D002E0FB689B79012BFB685B79002BD9
:1017600004D17B685B68DBB29BB206E07B685B6898
:10177000DBB29BB203F07F039BB218461437BD4621
:1017800080BC704700380140C00200200044004087
:10179000D002002000480040E002002080B584B064
:1017A00000AF78602C4B1B68FB607B682B4A934230
:1017B00015D12B4B9B692A4A43F00403936107F12F
:1017C0000C0319462748FFF7A7F9274B1B68FB6056
:1017D00007F10C0319462348FFF79EF938E07B68B0
:1017E000224A934218D11E4B9B691D4A43F00403C1
:1017F00093611F4B1B68FB6007F10C0319461948E6
:10180000FFF78AF91B4B1B68FB6007F10C031946B5
:101810001448FFF781F91BE07B68174A934217D100
:101820000F4B9B690E4A43F008039361134B1B68EF
:10183000FB6007F10C0319461148FFF76DF9114BD6
:101840001B68FB6007F10C0319460D48FFF764F9AC
:1018500000BF1037BD4680BD1C1D00080038014088
:101860000010024000080140201D00080044004014
:10187000241D0008281D0008004800402C1D0008F9
:10188000000C0140301D000880B500AF054B1B68FF
:1018900003F02003002B02D0034BDB68984700BF06
:1018A00080BD00BF00380140C002002080B500AFFD
:1018B000054B1B6803F02003002B02D0034BDB69B0
:1018C000984700BF80BD00BF00440040C002002018
:1018D00080B500AF054B1B6803F02003002B02D03E
:1018E000034BDB6A984700BF80BD00BF0048004043
:1018F000C002002080B400AFFEE780B500AF00F06A
:1019000001F8FEE780B500AF3E4B9B693D4A43F0CE
:10191000040393613B4B9B693A4A43F0080393618C
:10192000384B9B69374A43F010039361354B9B69F1
:10193000344A43F001039361324B9B69314A43F4CB
:10194000804393612F4BDB692E4A43F40033D3610C
:101950002C4BDB692B4A43F48023D361FEF7CEFC8A
:101960002948FEF7CFFE2948FEF7CCFE2848FEF7AF
:10197000C9FE2848FEF7C6FE274B08221A80264BD0
:1019800004229A70244B0122DA7023492348FFF77E
:10199000C3F8234B4FF496421A60214B00221A7170
:1019A0001F4B0022DA711E4B00225A711C4B002281
:1019B0005A721B4B00229A71194B00221A72194B52
:1019C0004FF496421A60174B00221A71154B0022F1
:1019D000DA71144B00225A71124B00225A72114BC9
:1019E00001229A710F4B104ADA600E4B00221A72D4
:1019F0000B490E48FFF7E0FC0A490D48FFF7DCFCF5
:101A000000BF80BD001002401C00002030000020FC
:101A1000440000205800002014030020000C014066
:101A2000F002002004030020391B000800380140A8
:101A30000048004080B500AF012208210C48FFF7A4
:101A400053F961210B48FFF71FFE00BF0021084832
:101A5000FFF772F90346002BF8D10320FFF795FC3E
:101A6000002208210248FFF73FF900BF80BD00BFF8
:101A7000000C01400038014080B500AF0122082170
:101A80000C48FFF731F962210B48FFF7FDFD00BF5D
:101A900001210848FFF750F90346002BF8D1032035
:101AA000FFF773FC002208210248FFF71DF900BF71
:101AB00080BD00BF000C01400038014080B500AF80
:101AC000012208210C48FFF70FF963210B48FFF7AB
:101AD000DBFD00BF02210848FFF72EF90346002B6B
:101AE000F8D10320FFF751FC002208210248FFF73C
:101AF000FBF800BF80BD00BF000C01400038014072
:101B000080B500AF64210A48FFF7BEFD00BF032186
:101B10000848FFF711F90346002BF8D10320FFF71F
:101B200034FC002208210348FFF7DEF800BF80BD27
:101B300000380140000C014080B500AF4548FFF778
:101B4000E3FD03461946444B1B781A46C9B2434B82
:101B500099543020FEF764FC3F4B1B78002B1AD1C0
:101B600001210020FEF7A6FB3B4B1B781A463B4B9E
:101B70009B5C2D2B03D965213948FFF785FD364B3A
:101B80001B781A46354B9B5C182B53D8662134487A
:101B9000FFF77AFD4EE0304B1B78012B1DD107215A
:101BA0000020FEF787FB3120FEF73AFC2A4B1B781A
:101BB0001A462A4B9B5C2D2B03D967212848FFF737
:101BC00063FD254B1B781A46244B9B5C182B31D8A0
:101BD00068212348FFF758FD2CE01F4B1B78022B90
:101BE00012D101210120FEF765FB3220FEF718FC1F
:101BF000194B1B781A46194B9B5C312B1AD86A215A
:101C00001748FFF741FD15E0134B1B78032B11D14B
:101C100007210120FEF74EFB3320FEF701FC0E4B9F
:101C20001B781A460D4B9B5C312B03D86B210C485B
:101C3000FFF72AFD084B1B780133DAB2064B1A7006
:101C4000054B1B78042B02D1034B00221A7000BFF6
:101C500080BD00BF00480040700000206C000020E4
:101C6000003801400D488546AFF300800C480D490F
:101C70000D4A002302E0D458C4500433C4188C42E7
:101C8000F9D30A4A0A4C002301E013600432A2424D
:101C9000FBD300F011F8FFF730FEFEE70050002004
:101CA00000000020740000203C1D0008740000208B
:101CB00018030020FEE7000070B500250C4E0D4C07
:101CC000A41BA410A54209D100F01AF800250A4E61
:101CD0000A4CA41BA410A54205D170BD56F82530AE
:101CE00098470135EEE756F8253098470135F2E779
:101CF000341D0008341D0008341D0008381D00087C
:101D0000F8B500BFF8BC08BC9E467047F8B500BFE8
:081D1000F8BC08BC9E467047B8
:101D180008000601090006020A0001000200060286
:0C1D2800030001000A0006020B0001008D
:041D3400550100084D
:041D3800310100086D
:101D3C00000000000102030400000000000000008D
:101D4C00010203040506070809000000000000005A
:101D5C00000801400000060001010000351A0008CF
:101D6C000100000000080140010007000101000013
:101D7C00791A000802000000000801400200080067
:101D8C0001010000BD1A000803000000000801401A
:101D9C000300090001010000011B00082020202085
:041DAC000100000032
:0400000508001C656E
:00000001FF
