:020000040800F2
:1000000000500020D91800082919000829190008F3
:100010002919000829190008291900080000000002
:100020000000000000000000000000002919000886
:1000300029190008000000002919000829190008E2
:100040002919000829190008291900082919000888
:10005000291900082919000891070008B5070008A8
:10006000D9070008FD070008210800082919000821
:100070002919000829190008291900082919000858
:100080002919000829190008D903000829190008AE
:10009000291900082919000829190008450800082D
:1000A0005110000809100008751000082D100008F4
:1000B0002D0C00080D0D0008DD0D000829190008A1
:1000C000291900082919000829190008710F0008CA
:1000D00029190008691500088D150008B1150008D8
:1000E000ED0800082919000800000000291900087F
:1000F00029190008291900082919000829190008D8
:1001000029190008291900082919000829190008C7
:1001100029190008291900082919000829190008B7
:1001200029190008291900082919000829190008A7
:1001300010B5054C237833B9044B13B10448AFF321
:1001400000800123237010BD6C000020000000001F
:100150007419000808B5034B1BB103490348AFF3FA
:10016000008008BD00000000700000207419000825
:1001700080B485B000AF78600023FB600BE0002303
:10018000BB6002E0BB680133BB60BB68FE2BF9D9E2
:10019000FB680133FB60FA687B689A42EFD300BFCB
:1001A0001437BD4680BC704780B500AF354B0F2279
:1001B0001A80344B04229A70324B0122DA70314992
:1001C000314800F00FFC2F4B0E221A802D4B0422D9
:1001D0009A702C4B0122DA702A492B4800F002FC5D
:1001E000284B0D221A80274B04229A70254B01229E
:1001F000DA702449244800F0F5FB224B09221A80CA
:10020000204B04229A701F4B0122DA701D491E48B0
:1002100000F0E8FB1B4B0A221A801A4B04229A704A
:10022000184B0122DA701749174800F0DBFB154B19
:1002300007221A80134B04229A70124B0122DA70A3
:100240001049114800F0CEFB0E4B0C221A800D4BCA
:1002500004229A700B4B0122DA700A490A4800F016
:10026000C1FB00220D21084800F0A4FC00220F2150
:10027000054800F09FFC00220E21034800F09AFC84
:1002800000BF80BD30020020000C014080B500AFEF
:1002900001220D21064800F08DFC0220FFF768FFC7
:1002A00000220D21024800F085FC00BF80BD00BF88
:1002B000000C014080B500AF1420FFF759FFFFF795
:1002C00073FF0F20FFF754FF022000F00FF82820E3
:1002D00000F00CF8062000F009F8802000F006F885
:1002E0000F2000F003F800BF80BD000080B582B091
:1002F00000AF0346FB71FB791B09DBB203F001037E
:10030000DBB21A460921334800F054FCFB795B0943
:10031000DBB203F00103DBB21A460A212D4800F0DC
:1003200049FCFB799B09DBB203F00103DBB21A46FF
:100330000721284800F03EFCFB79DB09DBB21A46B6
:100340000C21244800F036FC00220E21214800F048
:1003500031FC00220F211F4800F02CFCFFF796FF14
:10036000FB7903F00103DBB21A460921194800F0BA
:1003700021FCFB795B08DBB203F00103DBB21A4618
:100380000A21144800F016FCFB799B08DBB203F04D
:100390000103DBB21A4607210E4800F00BFCFB7983
:1003A000DB08DBB203F00103DBB21A460C2109487B
:1003B00000F000FC00220E21064800F0FBFB0022AA
:1003C0000F21044800F0F6FBFFF760FF00BF08377D
:1003D000BD4680BD000C014080B500AF134B1B68CB
:1003E000C3F34003DBB2012B0FD1104B5B6BC3F3A4
:1003F0000403DBB219460E4A0B465B000B449B001C
:10040000134408331B6898470EE00A4B5B6BC3F339
:100410000403DBB21946064A0B465B000B449B0003
:100420001344C8331B68984700BF80BD00240140B7
:10043000880000200028014080B483B000AF03464C
:10044000FB71FB790F2B54D801A252F823F000BFA7
:10045000910400089F040008AD040008BB040008D4
:10046000C9040008D7040008D7040008D70400080E
:10047000D7040008D7040008E5040008E5040008D4
:10048000E5040008E5040008E5040008E5040008A8
:100490001A4B1B68194A43F04003136029E0174BBD
:1004A0001B68164A43F08003136022E0134B1B685D
:1004B000124A43F4807313601BE0104B1B680F4A11
:1004C00043F40073136014E00C4B1B680B4A43F4B5
:1004D000806313600DE0094B1B68084A43F4000376
:1004E000136006E0064B1B68054A43F480731360F3
:1004F00000BF00BF0C37BD4680BC704700E100E084
:1005000004E100E080B483B000AF0346FB71FB79E7
:100510000F2B54D801A252F823F000BF5D0500084C
:100520006B05000879050008870500089505000897
:10053000A3050008A3050008A3050008A3050008FB
:10054000A3050008B1050008B1050008B1050008C1
:10055000B1050008B1050008B10500081A4B1B6879
:10056000194A23F04003136029E0174B1B68164A11
:1005700023F08003136022E0134B1B68124A23F41C
:10058000807313601BE0104B1B680F4A23F4007349
:10059000136014E00C4B1B680B4A23F48063136058
:1005A0000DE0094B1B68084A23F40003136006E0C2
:1005B000064B1B68054A23F48073136000BF00BF1D
:1005C0000C37BD4680BC704700E100E004E100E06C
:1005D00080B584B000AF7860654B9B69644A43F096
:1005E000010393617B681B889B089BB2FB737B684C
:1005F0001B88DBB203F00303DBB29B00BB73002359
:10060000BB607B681B893B810123BB727B685B6895
:1006100007F108021146184600F0E4F97B681B7BDD
:10062000002B0BD1534BDB687A68128811460122EC
:100630008A4011464F4A0B43D36029E07B681B7BFD
:10064000012B0BD14B4B9B687A6812881146012213
:100650008A401146474A0B43936019E07B681B7B35
:10066000022B15D1434BDB687A68128811460122B0
:100670008A4011463F4A0B43D3603E4B9B687A68E1
:100680001288114601228A4011463A4A0B43936070
:10069000394AFB7B023352F82320BB7B0F2101FA3E
:1006A00003F3DB4318463449FB7B0240023341F835
:1006B0002320314AFB7B023352F823207B685B689E
:1006C0002E498B4216D07B685B682D498B420FD038
:1006D0007B685B682B498B4208D07B685B682A4942
:1006E0008B4201D1042306E0002304E0032302E04F
:1006F000012300E00023B97B8B4018461E49FB7B99
:100700000243023341F823207B681B8819467B682B
:100710001B691E4A42F821307B685B7B012B11D19B
:10072000144B1B687A681288114601228A401146D0
:10073000104A0B4313607B681B88DBB21846FFF737
:100740007BFE11E00B4B1B687A6812881146012270
:100750008A40D2431146074A0B4013607B681B88CE
:10076000DBB21846FFF7CEFE00BF1037BD4680BD96
:100770000010024000040140000001400008014058
:10078000000C014000100140001401403402002020
:1007900080B500AF054B1B689847054B5B69044A61
:1007A00043F00103536100BF80BD00BF340200204D
:1007B0000004014080B500AF054B5B689847054BCE
:1007C0005B69044A43F00203536100BF80BD00BF70
:1007D000340200200004014080B500AF054B9B6847
:1007E0009847054B5B69044A43F00403536100BF1B
:1007F00080BD00BF340200200004014080B500AF7E
:10080000054BDB689847054B5B69044A43F00803D6
:10081000536100BF80BD00BF3402002000040140CE
:1008200080B500AF054B1B699847054B5B69044ACF
:1008300043F01003536100BF80BD00BF34020020AD
:100840000004014080B500AF264B5B6903F0200334
:10085000002B08D0234B5B69224A43F020035361ED
:10086000214B5B6998471F4B5B6903F04003002BEA
:1008700008D01C4B5B691B4A43F0400353611A4B81
:100880009B699847174B5B6903F08003002B08D0E6
:10089000144B5B69134A43F080035361124BDB69CD
:1008A0009847104B5B6903F48073002B08D00D4B05
:1008B0005B690C4A43F4807353610B4B1B6A984786
:1008C000084B5B6903F40073002B08D0054B5B6990
:1008D000044A43F400735361034B5B6A984700BFBB
:1008E00080BD00BF000401403402002080B500AF8D
:1008F0002D4B5B6903F48063002B08D02A4B5B69A6
:10090000294A43F480635361284B9B6A9847264BDE
:100910005B6903F40063002B08D0234B5B69224A18
:1009200043F400635361214BDB6A98471E4B5B69BC
:1009300003F48053002B08D01B4B5B691A4A43F425
:1009400080535361194B1B6B9847174B5B6903F43A
:100950000053002B08D0144B5B69134A43F4005337
:100960005361124B5B6B98470F4B5B6903F48043F9
:10097000002B08D00C4B5B690B4A43F48043536156
:100980000A4B9B6B9847084B5B6903F40043002BB1
:1009900008D0054B5B69044A43F400435361034BA1
:1009A000DB6B984700BF80BD00040140340200208B
:1009B00080B485B000AF0346FB80FB88072B03D8CB
:1009C000FB889B009BB206E0FB8803F57F5338331E
:1009D0009BB29B009BB2FB81FB8918461437BD4636
:1009E00080BC704790B585B000AF786039607B6897
:1009F0006A4A934206D16A4B9B69694A43F00403F1
:100A000093612AE07B68674A934206D1644B9B69F5
:100A1000634A43F0080393611FE07B68624A934294
:100A200006D15F4B9B695E4A43F01003936114E06B
:100A30007B685E4A934206D1594B9B69584A43F002
:100A40002003936109E07B68594A934205D1544BD6
:100A50009B69534A43F0400393613B681B889BB2F8
:100A6000072B01D87B6801E07B680433FB603B689F
:100A70001B889BB21846FFF79BFF03461A460F23BD
:100A80009340DA43FB681B681A40FB681A603B68B6
:100A90009B78DBB2002B0ED03B689B78DBB2012B3E
:100AA00009D03B689B78DBB2022B04D03B689B7873
:100AB000DBB2032B56D13B689B78DBB2032B1CD1F6
:100AC0003B681B889BB21846FFF772FF03461A4625
:100AD000082303FA02F2FB681B681A43FB681A60DA
:100AE0003B681B889BB21A4601239340DA437B681C
:100AF000DB681A407B68DA604CE03B689B78DBB2CD
:100B0000022B1CD13B681B889BB21846FFF750FF95
:100B100003461A46082303FA02F2FB681B681A43CD
:100B2000FB681A603B681B889BB21A46012303FAD4
:100B300002F27B68DB681A437B68DA602AE03B6874
:100B40009B78DBB29C003B681B889BB21846FFF782
:100B50002FFF034604FA03F2FB681B681A43FB6885
:100B60001A6017E03B689B78DBB2043B9B003A6855
:100B7000D278D2B243EA02043B681B889BB2184683
:100B8000FFF716FF034604FA03F2FB681B681A43DB
:100B9000FB681A6000BF1437BD4690BD00080140D5
:100BA00000100240000C0140001001400014014000
:100BB0000018014080B483B000AF78600B467B80A2
:100BC00013467B707B78DBB2012B0BD17B889BB209
:100BD0001A46012303FA02F27B68DB681A437B683A
:100BE000DA600AE07B889BB21A4601239340DA431D
:100BF0007B68DB681A407B68DA6000BF0C37BD4653
:100C000080BC704780B483B000AF78600B467B80B7
:100C10007B689B687A8892B2D3409BB203F0010351
:100C20009BB218460C37BD4680BC704780B582B079
:100C300000AF4FF080431B69C3F30003DBB2002B0E
:100C40000BD07A68137843F0010313704FF08042A1
:100C500013696FF3000313614EE04FF080431B698B
:100C6000C3F34003DBB2002B0BD07A68137843F058
:100C7000020313704FF0804213696FF34103136155
:100C80003AE04FF080431B69C3F38003DBB2002BD3
:100C90000BD07A68137843F0040313704FF080424E
:100CA00013696FF38203136126E04FF080431B69E1
:100CB000C3F3C003DBB2002B0BD07A68137843F088
:100CC000080313704FF0804213696FF3C30313617D
:100CD00012E04FF080431B69C3F30013DBB2002B1B
:100CE0000AD07A68137843F0100313704FF08042F3
:100CF00013696FF304131361034BDB68786898473B
:100D000000BF0837BD4680BD7002002080B582B0AC
:100D100000AF304B1B69C3F30003DBB2002B0AD0DA
:100D20007A68137843F0010313702A4A13696FF34A
:100D30000003136146E0274B1B69C3F34003DBB29A
:100D4000002B0AD07A68137843F002031370214A0B
:100D500013696FF34103136134E01E4B1B69C3F346
:100D60008003DBB2002B0AD07A68137843F00403C7
:100D70001370184A13696FF38203136122E0154B55
:100D80001B69C3F3C003DBB2002B0AD07A68137867
:100D900043F0080313700F4A13696FF3C303136121
:100DA00010E00C4B1B69C3F30013DBB2002B09D01E
:100DB0007A68137843F010031370064A13696FF3CF
:100DC00004131361044BDB697868984700BF083748
:100DD000BD4680BD000400407002002080B582B096
:100DE00000AF334B1B69C3F30003DBB2002B0AD007
:100DF0007A68137843F0010313702D4A13696FF377
:100E0000000313614BE02A4B1B69C3F34003DBB2C1
:100E1000002B0AD07A68137843F002031370244A37
:100E200013696FF34103136139E0214B1B69C3F36D
:100E30008003DBB2002B0FD07A68137843F00403F1
:100E400013701B4A13696FF3820313617A68137876
:100E500043F00103137022E0154B1B69C3F3C00379
:100E6000DBB2002B0AD07A68137843F008031370C2
:100E70000F4A13696FF3C303136110E00C4B1B6936
:100E8000C3F30013DBB2002B09D07A68137843F068
:100E900010031370064A13696FF304131361054BB3
:100EA000DB6A7868984700BF0837BD4680BD00BF41
:100EB000000800407002002080B400AF0A4B5B685D
:100EC0009B0803F00303012B06D0012B02D3022B56
:100ED00004D005E0054B03E0054B01E0054BFFE7BF
:100EE0001846BD4680BC70470010024000127A00D0
:100EF0000024F400003FAB0180B500AFFFF7DCFF3A
:100F00000146054B5B681B0903F00F03034AD35CE2
:100F100021FA03F3184680BD0010024008000020AB
:100F200080B500AFFFF7E8FF0146054B5B681B0A81
:100F300003F00703034AD35C21FA03F3184680BD8C
:100F4000001002400000002080B500AFFFF7D4FF82
:100F50000146054B5B68DB0A03F00703034AD35CD9
:100F600021FA03F3184680BD001002400000002063
:100F700080B582B000AF3B1D0549184600F00CF863
:100F8000044BDB683879984700BF0837BD4680BD01
:100F9000003001400802002080B483B000AF7860C8
:100FA00039603B689B68C3F30003DBB2002B0FD0B2
:100FB0007A6813786FF3000313707A68137843F03C
:100FC000020313703A6813796FF38613137115E0F7
:100FD0003B689B68C3F34003DBB2002B0ED07A68FA
:100FE000137843F0010313707A6813786FF34103A9
:100FF00013703A6813796FF3C713137100BF0C377E
:10100000BD4680BC7047000080B500AF054BDB6873
:101010009847054B1A6813696FF30003136100BF0B
:1010200080BD00BFAC020020BC02002080B500AF34
:10103000054BDB689847054B1A6813696FF341034A
:10104000136100BF80BD00BFAC020020BC020020C5
:1010500080B500AF054BDB689847054B1A681369EC
:101060006FF30003136100BF80BD00BFAC0200201E
:10107000BC02002080B500AF054BDB689847054BEC
:101080001A6813696FF30003136100BF80BD00BFCE
:10109000AC020020BC020020B0B582B000AF786086
:1010A00039607B68A94A93420CD1A94A3B6814462F
:1010B0000FCB84E80F00A74B9B69A64A43F48043FB
:1010C000936124E07B68A44A93420ED1A04B3A6816
:1010D00003F1100413460FCB84E80F009D4BDB692E
:1010E0009C4A43F40033D36111E07B689B4A9342EE
:1010F0000DD1974B3A6803F1200413460FCB84E8D7
:101100000F00944BDB69934A43F48023D3617B68DF
:10111000DB6843F400527B68DA607B68DB683A681E
:10112000127912031A437B68DA607B681B693A689C
:10113000D27912031A437B681A613B685B7A002BF1
:101140000BD17B68DB6843F008027B68DA607B6860
:10115000DB6843F004027B68DA603B681B7A032B90
:1011600026D801A252F823F079110008871100084F
:1011700095110008A31100087B685B6923F4407295
:101180007B685A6114E07B685B6943F480727B681A
:101190005A610DE07B685B6943F400727B685A61B9
:1011A00006E07B685B6943F440727B685A6100BF6C
:1011B0007B68DB683A68527952021A437B68DA60CE
:1011C0003B689B79012B25D17B68604A934206D10D
:1011D000634B1B68624A43F02003136014E07B6892
:1011E0005D4A934206D15E4B1B685D4A43F0400363
:1011F000136009E07B68594A934205D1584B1B683C
:10120000574A43F0800313607B68DB6843F0200299
:101210007B68DA607B684D4A93422DD1FFF794FEDC
:1012200002463B681B681B01B2FBF3F31C01FFF78E
:101230008BFE024613469B0013449A001A443B68F7
:101240001B689B00B2FBF3F5FFF77EFE02463B688E
:101250001B681B01B2FBF3F3642202FB03F3EB1ADE
:101260001B01404AA2FB03235B0903F00F0344EA7E
:1012700003027B689A6062E07B68374A93422DD113
:10128000FFF74EFE02463B681B681B01B2FBF3F3FF
:101290001C01FFF745FE024613469B0013449A00CB
:1012A0001A443B681B689B00B2FBF3F5FFF738FE5E
:1012B00002463B681B681B01B2FBF3F3642202FB8E
:1012C00003F3EB1A1B01274AA2FB03235B0903F07C
:1012D0000F0344EA03027B689A6030E07B681F4A90
:1012E00093422CD1FFF71CFE02463B681B681B0192
:1012F000B2FBF3F31C01FFF713FE024613469B00FB
:1013000013449A001A443B681B689B00B2FBF3F538
:10131000FFF706FE02463B681B681B01B2FBF3F3B6
:10132000642202FB03F3EB1A1B010E4AA2FB032308
:101330005B0903F00F0344EA03027B689A60786854
:1013400000F09CF800BF0837BD46B0BD0038014032
:10135000C00200200010024000440040004800404D
:1013600004E100E01F85EB5180B485B000AF7860E8
:101370000B46FB700023FB607B68154A934202D149
:10138000144BFB600CE07B68134A934202D1134B71
:10139000FB6005E07B68124A934201D1114BFB6070
:1013A00000BF7B681B6803F08003002BF9D0FB684B
:1013B0001B79012B03D1FA787B685A6002E0FA7836
:1013C0007B685A6000BF1437BD4680BC704700BFC1
:1013D00000380140C002002000440040D00200203C
:1013E00000480040E002002080B485B000AF786083
:1013F0000023FB607B681B4A934202D11A4BFB60BF
:101400000CE07B68194A934202D1194BFB6005E05E
:101410007B68184A934201D1174BFB60FB689B79AC
:10142000002B07D100BF7B681B6803F02003002B53
:10143000F9D002E0FB689B79012BFB685B79002BFC
:1014400004D17B685B68DBB29BB206E07B685B68BB
:10145000DBB29BB203F07F039BB218461437BD4644
:1014600080BC704700380140C002002000440040AA
:10147000D002002000480040E002002080B584B087
:1014800000AF78602C4B1B68FB607B682B4A934253
:1014900015D12B4B9B692A4A43F00403936107F152
:1014A0000C0319462748FFF79DFA274B1B68FB6082
:1014B00007F10C0319462348FFF794FA38E07B68DC
:1014C000224A934218D11E4B9B691D4A43F00403E4
:1014D00093611F4B1B68FB6007F10C031946194809
:1014E000FFF780FA1B4B1B68FB6007F10C031946E2
:1014F0001448FFF777FA1BE07B68174A934217D12D
:101500000F4B9B690E4A43F008039361134B1B6812
:10151000FB6007F10C0319461148FFF763FA114B02
:101520001B68FB6007F10C0319460D48FFF75AFAD8
:1015300000BF1037BD4680BD8C190008003801403F
:1015400000100240000801409019000800440040CB
:101550009419000898190008004800409C190008D8
:10156000000C0140A019000880B500AF054B1B68B6
:1015700003F02003002B02D0034BDB68984700BF29
:1015800080BD00BF00380140C002002080B500AF20
:10159000054B1B6803F02003002B02D0034BDB69D3
:1015A000984700BF80BD00BF00440040C00200203B
:1015B00080B500AF054B1B6803F02003002B02D061
:1015C000034BDB6A984700BF80BD00BF0048004066
:1015D000C002002080B500AF00F0A2F8474B1B7896
:1015E000DBB2002B0ED1464B1B78DBB2002B09D1AE
:1015F000444B1B78DBB2002B04D1434B1B78DBB28E
:10160000002B04D0012208214048FFF7D3FA404BB9
:101610001B78DBB2002B09D03D4B00221A703D4BEA
:101620001B7819463C48FFF79FFE46E0334B1B787A
:10163000DBB2002B0CD000213848FFF7E3FA034659
:10164000DAB22E4B1A7061213348FFF78DFE34E079
:101650002B4B1B78DBB2002B0CD001212F48FFF75E
:10166000D1FA0346DAB2264B1A7062212A48FFF7F4
:101670007BFE22E0234B1B78DBB2002B0CD0022137
:101680002648FFF7BFFA0346DAB21E4B1A706321F1
:101690002148FFF769FE10E01B4B1B78DBB2002BE3
:1016A0000BD003211D48FFF7ADFA0346DAB2164B03
:1016B0001A7064211848FFF757FE104B1B78DBB2F5
:1016C000002B0ED10E4B1B78DBB2002B09D10D4B3A
:1016D0001B78DBB2002B04D10B4B1B78DBB2002B49
:1016E00005D0012208210948FFF764FA04E000222E
:1016F00008210648FFF75EFA70E700BF28020020C5
:10170000290200202A0200202B020020000C0140A8
:101710002C02002000030020003801400008014096
:1017200080B500AF3E4B9B693D4A43F00403936193
:101730003B4B9B693A4A43F008039361384B9B69E2
:10174000374A43F010039361354B9B69344A43F0A9
:1017500001039361324B9B69314A43F480439361A7
:101760002F4BDB692E4A43F40033D3612C4BDB69EA
:101770002B4A43F48023D361FEF79CFD2948FEF7F2
:1017800027FF2948FEF724FF2848FEF721FF2848B5
:10179000FEF71EFF274B08221A80264B04229A7060
:1017A000244B0122DA7023492348FFF71BF9234B0E
:1017B0004FF496421A60214B00221A711F4B0022EF
:1017C000DA711E4B00225A711C4B00225A721B4BBD
:1017D00000229A71194B00221A72194B4FF496424B
:1017E0001A60174B00221A71154B0022DA71144B44
:1017F00000225A71124B00225A72114B01229A7127
:101800000F4B104ADA600E4B00221A720B490E4839
:10181000FFF742FC0A490D48FFF73EFC00BF80BDC0
:10182000001002401C000020300000204400002076
:101830005800002014030020000C0140F00200209A
:1018400004030020B118000800380140004800409F
:1018500080B400AF034B01221A7000BFBD4680BCAC
:10186000704700BF2802002080B400AF034B012264
:101870001A7000BFBD4680BC704700BF290200201F
:1018800080B400AF034B01221A7000BFBD4680BC7C
:10189000704700BF2A02002080B400AF034B012232
:1018A0001A7000BFBD4680BC704700BF2B020020ED
:1018B00080B500AF054B01221A700548FFF794FD73
:1018C0000346DAB2034B1A7000BF80BD2C02002021
:1018D00000480040000300200D488546AFF300801B
:1018E0000C480D490D4A002302E0D458C45004337B
:1018F000C4188C42F9D30A4A0A4C002301E0136051
:101900000432A242FBD300F011F8FFF763FEFEE7BA
:1019100000500020000000206C000020AC190008DE
:101920006C00002018030020FEE7000070B50025C1
:101930000C4E0D4CA41BA410A54209D100F01AF8BE
:1019400000250A4E0A4CA41BA410A54205D170BD67
:1019500056F8253098470135EEE756F82530984778
:101960000135F2E7A4190008A4190008A419000819
:10197000A8190008F8B500BFF8BC08BC9E4670471F
:0C198000F8B500BFF8BC08BC9E467047DC
:10198C00090006020A000100020006020300010021
:08199C000A0006020B00010025
:0419A40055010008E1
:0419A8003101000801
:1019AC000000000001020304000000000000000021
:1019BC0001020304050607080900000000000000EE
:1019CC000008014000000600010100005118000849
:1019DC0001000000000801400100070001010000A7
:1019EC00691800080200000000080140020008000D
:1019FC0001010000811800080300000000080140EC
:0C1A0C0003000900010100009918000807
:04000005080018D9FE
:00000001FF
