:020000040800F2
:1000000000500020111B0008611B0008611B000844
:10001000611B0008611B0008611B00080000000054
:10002000000000000000000000000000611B00084C
:10003000611B000800000000611B0008611B000834
:10004000611B0008611B0008611B0008611B0008A0
:10005000611B0008611B0008290900084D09000800
:100060007109000895090008B9090008611B00081A
:10007000611B0008611B0008611B0008611B000870
:10008000611B0008611B000871050008611B000866
:10009000611B0008611B0008611B0008DD090008E6
:1000A00021130008D912000845130008FD120008AA
:1000B000C50D0008A50E0008750F0008611B00089B
:1000C000611B0008611B0008611B00080911000882
:1000D000611B0008591800087D180008A1180008C5
:1000E000850A0008611B000800000000611B000871
:1000F000611B0008611B0008611B0008611B0008F0
:10010000611B0008611B0008611B0008611B0008DF
:10011000611B0008611B0008611B0008611B0008CF
:10012000611B0008611B0008611B0008611B0008BF
:1001300010B5054C237833B9044B13B10448AFF321
:1001400000800123237010BD6C000020000000001F
:10015000AC1B000808B5034B1BB103490348AFF3C0
:10016000008008BD0000000070000020AC1B0008EB
:1001700080B485B000AF78600023FB600BE0002303
:10018000BB6002E0BB680133BB60BB68FE2BF9D9E2
:10019000FB680133FB60FA687B689A42EFD300BFCB
:1001A0001437BD4680BC704780B500AF354B0F2279
:1001B0001A80344B04229A70324B0122DA70314992
:1001C000314800F0DBFC2F4B0E221A802D4B04220D
:1001D0009A702C4B0122DA702A492B4800F0CEFC91
:1001E000284B0D221A80274B04229A70254B01229E
:1001F000DA702449244800F0C1FC224B09221A80FD
:10020000204B04229A701F4B0122DA701D491E48B0
:1002100000F0B4FC1B4B0A221A801A4B04229A707D
:10022000184B0122DA701749174800F0A7FC154B4C
:100230000B221A80134B04229A70124B0122DA709F
:100240001049114800F09AFC0E4B0C221A800D4BFD
:1002500004229A700B4B0122DA700A490A4800F016
:100260008DFC00220D21084800F070FD00220F21B6
:10027000054800F06BFD00220E21034800F066FDEA
:1002800000BF80BD28020020000C014080B500AFF7
:1002900001220D21064800F059FD0220FFF768FFFA
:1002A00000220D21024800F051FD00BF80BD00BFBB
:1002B000000C014080B500AF012000F041F800BF04
:1002C00080BD80B582B000AF03460A46FB7113467D
:1002D000BB71FB79012B08D1BB790F2B05D8BB79FA
:1002E000803BDBB2184600F02BF8FB79022B08D1DB
:1002F000BB790F2B05D8BB79403BDBB2184600F029
:100300001FF800BF0837BD4680BD80B500AF142080
:10031000FFF72EFFFFF748FF0F20FFF729FF02200E
:1003200000F00EF8282000F00BF8062000F008F886
:10033000802000F005F80F2000F002F800BF80BD1B
:1003400080B582B000AF0346FB71FB791B09DBB2BD
:1003500003F00103DBB21A460921334800F0F6FC32
:10036000FB795B09DBB203F00103DBB21A460A2119
:100370002D4800F0EBFCFB799B09DBB203F0010395
:10038000DBB21A460B21284800F0E0FCFB79DB09C0
:10039000DBB21A460C21244800F0D8FC00220E21C2
:1003A000214800F0D3FC00220F211F4800F0CEFCB2
:1003B000FFF76CFFFB7903F00103DBB21A4609215A
:1003C000194800F0C3FCFB795B08DBB203F00103C2
:1003D000DBB21A460A21144800F0B8FCFB799B08EE
:1003E000DBB203F00103DBB21A460B210E4800F02A
:1003F000ADFCFB79DB08DBB203F00103DBB21A468C
:100400000C21094800F0A2FC00220E21064800F051
:100410009DFC00220F21044800F098FCFFF736FFF6
:1004200000BF0837BD4680BD000C014080B582B0DA
:1004300000AF0346FB71FB791B09DBB203F001033C
:10044000DBB21A460921334800F080FCFB795B09D6
:10045000DBB203F00103DBB21A460A212D4800F09B
:1004600075FCFB799B09DBB203F00103DBB21A4692
:100470000B21284800F06AFCFB79DB09DBB21A4645
:100480000C21244800F062FC00220E21214800F0DB
:100490005DFC01220F211F4800F058FCFFF7F6FE1B
:1004A000FB7903F00103DBB21A460921194800F079
:1004B0004DFCFB795B08DBB203F00103DBB21A46AB
:1004C0000A21144800F042FCFB799B08DBB203F0E0
:1004D0000103DBB21A460B210E4800F037FCFB7912
:1004E000DB08DBB203F00103DBB21A460C2109483A
:1004F00000F02CFC00220E21064800F027FC01220F
:100500000F21044800F022FCFFF7C0FE00BF0837AF
:10051000BD4680BD000C014080B584B000AF78605E
:100520000023FB601CE0FB680133FB607B685A1C06
:100530007A601B781846FFF779FFFB68102B04D10F
:1005400000210220FFF7BDFE0AE0FB68202B07D147
:10055000FFF7B0FE00210120FFF7B3FE0023FB6090
:100560007B681B78002BDED100BF1037BD4680BDF5
:1005700080B500AF134B1B68C3F34003DBB2012B04
:100580000FD1104B5B6BC3F30403DBB219460E4A69
:100590000B465B000B449B00134408331B689847D1
:1005A0000EE00A4B5B6BC3F30403DBB21946064A49
:1005B0000B465B000B449B001344C8331B689847F1
:1005C00000BF80BD002401408800002000280140B9
:1005D00080B483B000AF0346FB71FB790F2B54D876
:1005E00001A252F823F000BF2906000837060008D0
:1005F0004506000853060008610600086F0600085B
:100600006F0600086F0600086F0600086F060008F6
:100610007D0600087D0600087D0600087D060008AE
:100620007D0600087D0600081A4B1B68194A43F036
:100630004003136029E0174B1B68164A43F0800300
:10064000136022E0134B1B68124A43F4807313605B
:100650001BE0104B1B680F4A43F40073136014E057
:100660000C4B1B680B4A43F4806313600DE0094B8D
:100670001B68084A43F40003136006E0064B1B683E
:10068000054A43F48073136000BF00BF0C37BD46BA
:1006900080BC704700E100E004E100E080B483B07A
:1006A00000AF0346FB71FB790F2B54D801A252F81F
:1006B00023F000BFF5060008030700081107000833
:1006C0001F0700082D0700083B0700083B0700082C
:1006D0003B0700083B0700083B07000849070008E4
:1006E00049070008490700084907000849070008AA
:1006F000490700081A4B1B68194A23F0400313608E
:1007000029E0174B1B68164A23F08003136022E090
:10071000134B1B68124A23F4807313601BE0104BC9
:100720001B680F4A23F40073136014E00C4B1B6822
:100730000B4A23F4806313600DE0094B1B68084AE1
:1007400023F40003136006E0064B1B68054A23F4FC
:100750008073136000BF00BF0C37BD4680BC70477C
:1007600000E100E004E100E080B584B000AF786013
:10077000654B9B69644A43F0010393617B681B8866
:100780009B089BB2FB737B681B88DBB203F00303FF
:10079000DBB29B00BB730023BB607B681B893B8182
:1007A0000123BB727B685B6807F10802114618469B
:1007B00000F0E4F97B681B7B002B0BD1534BDB680B
:1007C0007A681288114601228A4011464F4A0B432B
:1007D000D36029E07B681B7B012B0BD14B4B9B68C3
:1007E0007A681288114601228A401146474A0B4313
:1007F000936019E07B681B7B022B15D1434BDB68B0
:100800007A681288114601228A4011463F4A0B43FA
:10081000D3603E4B9B687A681288114601228A4059
:1008200011463A4A0B439360394AFB7B023352F834
:100830002320BB7B0F2101FA03F3DB431846344925
:10084000FB7B0240023341F82320314AFB7B023319
:1008500052F823207B685B682E498B4216D07B6858
:100860005B682D498B420FD07B685B682B498B42BC
:1008700008D07B685B682A498B4201D1042306E0DB
:10088000002304E0032302E0012300E00023B97BFE
:100890008B4018461E49FB7B0243023341F823205C
:1008A0007B681B8819467B681B691E4A42F8213009
:1008B0007B685B7B012B11D1144B1B687A68128813
:1008C000114601228A401146104A0B4313607B688F
:1008D0001B88DBB21846FFF77BFE11E00B4B1B6851
:1008E0007A681288114601228A40D2431146074A8B
:1008F0000B4013607B681B88DBB21846FFF7CEFE07
:1009000000BF1037BD4680BD00100240000401400A
:100910000000014000080140000C014000100140AF
:10092000001401402C02002080B500AF054B1B686D
:100930009847054B5B69044A43F00103536100BFCC
:1009400080BD00BF2C0200200004014080B500AF34
:10095000054B5B689847054B5B69044A43F002030B
:10096000536100BF80BD00BF2C0200200004014085
:1009700080B500AF054B9B689847054B5B69044AFF
:1009800043F00403536100BF80BD00BF2C02002070
:100990000004014080B500AF054BDB689847054B6C
:1009A0005B69044A43F00803536100BF80BD00BF88
:1009B0002C0200200004014080B500AF054B1B69EC
:1009C0009847054B5B69044A43F01003536100BF2D
:1009D00080BD00BF2C0200200004014080B500AFA4
:1009E000264B5B6903F02003002B08D0234B5B6987
:1009F000224A43F020035361214B5B6998471F4B08
:100A00005B6903F04003002B08D01C4B5B691B4A59
:100A100043F0400353611A4B9B699847174B5B693E
:100A200003F08003002B08D0144B5B69134A43F09A
:100A300080035361124BDB699847104B5B6903F4E9
:100A40008073002B08D00D4B5B690C4A43F4807314
:100A500053610B4B1B6A9847084B5B6903F40073A7
:100A6000002B08D0054B5B69044A43F400735361C3
:100A7000034B5B6A984700BF80BD00BF0004014084
:100A80002C02002080B500AF2D4B5B6903F480631E
:100A9000002B08D02A4B5B69294A43F480635361D9
:100AA000284B9B6A9847264B5B6903F40063002B35
:100AB00008D0234B5B69224A43F400635361214B06
:100AC000DB6A98471E4B5B6903F48053002B08D008
:100AD0001B4B5B691A4A43F480535361194B1B6BE0
:100AE0009847174B5B6903F40053002B08D0144B55
:100AF0005B69134A43F400535361124B5B6B984795
:100B00000F4B5B6903F48043002B08D00C4B5B69EF
:100B10000B4A43F4804353610A4B9B6B9847084B45
:100B20005B6903F40043002B08D0054B5B69044A62
:100B300043F400435361034BDB6B984700BF80BD18
:100B4000000401402C02002080B485B000AF0346B1
:100B5000FB80FB88072B03D8FB889B009BB206E039
:100B6000FB8803F57F5338339BB29B009BB2FB811C
:100B7000FB8918461437BD4680BC704790B585B0D8
:100B800000AF786039607B686A4A934206D16A4B4D
:100B90009B69694A43F0040393612AE07B68674AD2
:100BA000934206D1644B9B69634A43F00803936107
:100BB0001FE07B68624A934206D15F4B9B695E4AA5
:100BC00043F01003936114E07B685E4A934206D1C0
:100BD000594B9B69584A43F02003936109E07B68B5
:100BE000594A934205D1544B9B69534A43F0400301
:100BF00093613B681B889BB2072B01D87B6801E09F
:100C00007B680433FB603B681B889BB21846FFF788
:100C10009BFF03461A460F239340DA43FB681B6889
:100C20001A40FB681A603B689B78DBB2002B0ED041
:100C30003B689B78DBB2012B09D03B689B78DBB229
:100C4000022B04D03B689B78DBB2032B56D13B6868
:100C50009B78DBB2032B1CD13B681B889BB21846E8
:100C6000FFF772FF03461A46082303FA02F2FB68F5
:100C70001B681A43FB681A603B681B889BB21A46C4
:100C800001239340DA437B68DB681A407B68DA60B3
:100C90004CE03B689B78DBB2022B1CD13B681B8885
:100CA0009BB21846FFF750FF03461A46082303FA83
:100CB00002F2FB681B681A43FB681A603B681B88DA
:100CC0009BB21A46012303FA02F27B68DB681A43DF
:100CD0007B68DA602AE03B689B78DBB29C003B686B
:100CE0001B889BB21846FFF72FFF034604FA03F256
:100CF000FB681B681A43FB681A6017E03B689B7827
:100D0000DBB2043B9B003A68D278D2B243EA0204D9
:100D10003B681B889BB21846FFF716FF034604FA90
:100D200003F2FB681B681A43FB681A6000BF1437A4
:100D3000BD4690BD0008014000100240000C01407B
:100D400000100140001401400018014080B483B03D
:100D500000AF78600B467B8013467B707B78DBB2FC
:100D6000012B0BD17B889BB21A46012303FA02F2B6
:100D70007B68DB681A437B68DA600AE07B889BB299
:100D80001A4601239340DA437B68DB681A407B688C
:100D9000DA6000BF0C37BD4680BC704780B483B0BA
:100DA00000AF78600B467B807B689B687A8892B244
:100DB000D3409BB203F001039BB218460C37BD46EB
:100DC00080BC704780B582B000AF4FF080431B6994
:100DD000C3F30003DBB2002B0BD07A68137843F027
:100DE000010313704FF0804213696FF30003136126
:100DF0004EE04FF080431B69C3F34003DBB2002B8E
:100E00000BD07A68137843F0020313704FF08042DE
:100E100013696FF3410313613AE04FF080431B699C
:100E2000C3F38003DBB2002B0BD07A68137843F056
:100E3000040313704FF0804213696FF38203136150
:100E400026E04FF080431B69C3F3C003DBB2002BE5
:100E50000BD07A68137843F0080313704FF0804288
:100E600013696FF3C303136112E04FF080431B69F2
:100E7000C3F30013DBB2002B0AD07A68137843F077
:100E8000100313704FF0804213696FF30413136162
:100E9000034BDB687868984700BF0837BD4680BDC4
:100EA0006802002080B582B000AF304B1B69C3F3ED
:100EB0000003DBB2002B0AD07A68137843F00103F9
:100EC00013702A4A13696FF30003136146E0274B3E
:100ED0001B69C3F34003DBB2002B0AD07A68137896
:100EE00043F002031370214A13696FF34103136146
:100EF00034E01E4B1B69C3F38003DBB2002B0AD026
:100F00007A68137843F004031370184A13696FF377
:100F10008203136122E0154B1B69C3F3C003DBB2EC
:100F2000002B0AD07A68137843F0080313700F4A35
:100F300013696FF3C303136110E00C4B1B69C3F318
:100F40000013DBB2002B09D07A68137843F010034A
:100F50001370064A13696FF304131361044BDB69C2
:100F60007868984700BF0837BD4680BD0004004040
:100F70006802002080B582B000AF334B1B69C3F319
:100F80000003DBB2002B0AD07A68137843F0010328
:100F900013702D4A13696FF3000313614BE02A4B62
:100FA0001B69C3F34003DBB2002B0AD07A681378C5
:100FB00043F002031370244A13696FF34103136172
:100FC00039E0214B1B69C3F38003DBB2002B0FD048
:100FD0007A68137843F0040313701B4A13696FF3A4
:100FE000820313617A68137843F00103137022E0DF
:100FF000154B1B69C3F3C003DBB2002B0AD07A6820
:10100000137843F0080313700F4A13696FF3C30397
:10101000136110E00C4B1B69C3F30013DBB2002B10
:1010200009D07A68137843F010031370064A1369E5
:101030006FF304131361054BDB6A7868984700BFB0
:101040000837BD4680BD00BF000800406802002090
:1010500080B400AF0A4B5B689B0803F00303012BCD
:1010600006D0012B02D3022B04D005E0054B03E090
:10107000054B01E0054BFFE71846BD4680BC7047B5
:101080000010024000127A000024F400003FAB017F
:1010900080B500AFFFF7DCFF0146054B5B681B091D
:1010A00003F00F03034AD35C21FA03F3184680BD13
:1010B000001002400800002080B500AFFFF7E8FFF5
:1010C0000146054B5B681B0A03F00703034AD35C28
:1010D00021FA03F3184680BD0010024000000020F2
:1010E00080B500AFFFF7D4FF0146054B5B68DB0A14
:1010F00003F00703034AD35C21FA03F3184680BDCB
:10110000001002400000002080B582B000AF3B1DFF
:101110000549184600F00CF8044BDB68387998470D
:1011200000BF0837BD4680BD0030014008020020E6
:1011300080B483B000AF786039603B689B68C3F3CC
:101140000003DBB2002B0FD07A6813786FF3000333
:1011500013707A68137843F0020313703A681379B6
:101160006FF38613137115E03B689B68C3F340036C
:10117000DBB2002B0ED07A68137843F001031370B2
:101180007A6813786FF3410313703A6813796FF339
:10119000C713137100BF0C37BD4680BC70470000F9
:1011A00080B584B000AF7860064B1B68FB6007F128
:1011B0000C0319460448FFF7E1FC00BF1037BD4699
:1011C00080BD00BFC41B00080008014090B583B07B
:1011D00000AF786039603B4A3B6814460FCB84E827
:1011E0000F00394A7B6813607B68384A934205D107
:1011F000374B9B69364A43F4006393613B681B8815
:101200001A467B689A627A68136843F08003136019
:101210003B685B881A467B68DA623B689B881A46A3
:101220007B681A633B685B7A012B0ED0022B17D0C8
:10123000002B1BD17A6813686FF3461313607A682A
:1012400013686FF30413136013E07A6813686FF385
:10125000461313607A68136843F01003136008E0C4
:101260007A68136843F06003136002E000F02AFB21
:1012700000BF7868FFF794FF7A68136843F00103B2
:1012800013603B681B7A002B0BD17A68D36843F05C
:101290000103D3600F4B1B680E4A43F000731360C9
:1012A0000CE000BF7B681B69C3F30003DBB2002BBB
:1012B000F8D07A6813696FF30003136100BF0C372D
:1012C000BD4690BDA4020020B4020020002C0140C5
:1012D0000010024000E100E080B500AF054BDB6884
:1012E0009847054B1A6813696FF30003136100BF39
:1012F00080BD00BFA4020020B402002080B500AF72
:10130000054BDB689847054B1A6813696FF3410377
:10131000136100BF80BD00BFA4020020B402002002
:1013200080B500AF054BDB689847054B1A68136919
:101330006FF30003136100BF80BD00BFA402002053
:10134000B402002080B500AF054BDB689847054B21
:101350001A6813696FF30003136100BF80BD00BFFB
:10136000A4020020B402002080B586B000AF03467E
:10137000FB80FFF7B5FE02460F4BA3FB02239B0C3D
:101380009BB2013B9BB23B81FB88013B9BB27B81C3
:101390000023BB810023FB8101233B7400237B746A
:1013A00000237B6107F1080319460448FFF70EFF8D
:1013B00000BF1837BD4680BD83DE1B43002C0140B3
:1013C00080B584B000AF0346FB800023FB6006E0DD
:1013D0004FF47A70FFF7C8FFFB680133FB60FB88AE
:1013E000FA689A42F4D300BF1037BD4680BD80B57D
:1013F00084B000AF0346FB800023FB6006E04FF49F
:101400007A70FFF7DDFFFB680133FB60FB88FA6849
:101410009A42F4D300BF1037BD4680BDB0B582B04C
:1014200000AF786039607B68A94A93420CD1A94A21
:101430003B6814460FCB84E80F00A74B9B69A64A74
:1014400043F48043936124E07B68A44A93420ED125
:10145000A04B3A6803F1100413460FCB84E80F0049
:101460009D4BDB699C4A43F40033D36111E07B68F8
:101470009B4A93420DD1974B3A6803F120041346DF
:101480000FCB84E80F00944BDB69934A43F480232D
:10149000D3617B68DB6843F400527B68DA607B6869
:1014A000DB683A68127912031A437B68DA607B685A
:1014B0001B693A68D27912031A437B681A613B6848
:1014C0005B7A002B0BD17B68DB6843F008027B68FA
:1014D000DA607B68DB6843F004027B68DA603B68B3
:1014E0001B7A032B26D801A252F823F0FD14000822
:1014F0000B15000819150008271500087B685B69A3
:1015000023F440727B685A6114E07B685B6943F4A2
:1015100080727B685A610DE07B685B6943F40072FE
:101520007B685A6106E07B685B6943F440727B68C4
:101530005A6100BF7B68DB683A68527952021A43ED
:101540007B68DA603B689B79012B25D17B68604A18
:10155000934206D1634B1B68624A43F02003136039
:1015600014E07B685D4A934206D15E4B1B685D4A7E
:1015700043F04003136009E07B68594A934205D168
:10158000584B1B68574A43F0800313607B68DB6845
:1015900043F020027B68DA607B684D4A93422DD18C
:1015A000FFF79EFD02463B681B681B01B2FBF3F38D
:1015B0001C01FFF795FD024613469B0013449A0059
:1015C0001A443B681B689B00B2FBF3F5FFF788FDEC
:1015D00002463B681B681B01B2FBF3F3642202FB6B
:1015E00003F3EB1A1B01404AA2FB03235B0903F040
:1015F0000F0344EA03027B689A6062E07B68374A23
:1016000093422DD1FFF758FD02463B681B681B0132
:10161000B2FBF3F31C01FFF74FFD024613469B009C
:1016200013449A001A443B681B689B00B2FBF3F515
:10163000FFF742FD02463B681B681B01B2FBF3F358
:10164000642202FB03F3EB1A1B01274AA2FB0323CC
:101650005B0903F00F0344EA03027B689A6030E001
:101660007B681F4A93422CD1FFF726FD02463B6858
:101670001B681B01B2FBF3F31C01FFF71DFD0246C3
:1016800013469B0013449A001A443B681B689B0056
:10169000B2FBF3F5FFF710FD02463B681B681B0128
:1016A000B2FBF3F3642202FB03F3EB1A1B010E4AB5
:1016B000A2FB03235B0903F00F0344EA03027B68E8
:1016C0009A60786800F052F800BF0837BD46B0BD98
:1016D00000380140B80200200010024000440040E1
:1016E0000048004004E100E01F85EB5180B485B064
:1016F00000AF78600B46FB700023FB607B68154AE7
:10170000934202D1144BFB600CE07B68134A934276
:1017100002D1134BFB6005E07B68124A934201D172
:10172000114BFB6000BF7B681B6803F08003002B3C
:10173000F9D0FB681B79012B03D1FA787B685A60DA
:1017400002E0FA787B685A6000BF1437BD4680BC5F
:10175000704700BF00380140B8020020004400403C
:10176000C802002000480040D802002080B584B0A4
:1017700000AF78602C4B1B68FB607B682B4A934260
:1017800015D12B4B9B692A4A43F00403936107F15F
:101790000C0319462748FFF7F1F9274B1B68FB603C
:1017A00007F10C0319462348FFF7E8F938E07B6896
:1017B000224A934218D11E4B9B691D4A43F00403F1
:1017C00093611F4B1B68FB6007F10C031946194816
:1017D000FFF7D4F91B4B1B68FB6007F10C0319469C
:1017E0001448FFF7CBF91BE07B68174A934217D1E7
:1017F0000F4B9B690E4A43F008039361134B1B6820
:10180000FB6007F10C0319461148FFF7B7F9114BBC
:101810001B68FB6007F10C0319460D48FFF7AEF992
:1018200000BF1037BD4680BDC81B0008003801400E
:101830000010024000080140CC1B0008004400409A
:10184000D01B0008D41B000800480040D81B00082B
:10185000000C0140DC1B000880B500AF054B1B6885
:1018600003F02003002B02D0034BDB68984700BF36
:1018700080BD00BF00380140B802002080B500AF35
:10188000054B1B6803F02003002B02D0034BDB69E0
:10189000984700BF80BD00BF00440040B802002050
:1018A00080B500AF054B1B6803F02003002B02D06E
:1018B000034BDB6A984700BF80BD00BF0048004073
:1018C000B802002080B400AFFEE780B500AF00F0A2
:1018D00001F8FEE780B500AF304B9B692F4A43F01B
:1018E000040393612D4B9B692C4A43F008039361D9
:1018F0002A4B9B69294A43F010039361274B9B694C
:10190000264A43F001039361244B9B69234A43F425
:1019100080439361214BDB69204A43F40033D36158
:101920001E4BDB691D4A43F48023D361FEF7EDFCB7
:101930001B48FEF719FF1B48FEF716FF1A48FEF773
:1019400013FF1A48FEF710FF194B08221A80184B94
:1019500004229A70164B0122DA7015491548FFF7D8
:101960000DF9154B4FF496421A60134B00221A7171
:10197000114B0022DA71104B00225A710E4B0022DB
:101980005A720D4B00229A710B4B00221A720A49AF
:101990000A48FFF743FD00BF80BD00BF00100240B2
:1019A0001C000020300000204400002058000020CF
:1019B00004030020000C0140E80200200038014030
:1019C00080B500AFFEF776FC0F48FEF7A5FD0122BB
:1019D00008210E48FFF7BAF961210D48FFF786FE8E
:1019E00000BF00210948FFF7D9F90346002BF8D1C1
:1019F0000320FFF7FCFC002208210448FFF7A6F9AA
:101A0000FEF758FC00BF80BDE01B0008000C014041
:101A10000038014080B500AFFEF74CFC0F48FEF7E0
:101A20007BFD012208210E48FFF790F962210D4845
:101A3000FFF75CFE00BF01210948FFF7AFF903463D
:101A4000002BF8D10320FFF7D2FC00220821044824
:101A5000FFF77CF9FEF72EFC00BF80BD001C0008DC
:101A6000000C01400038014080B500AFFEF722FCB9
:101A70000F48FEF751FD012208210E48FFF766F9D5
:101A800063210D48FFF732FE00BF02210948FFF72E
:101A900085F90346002BF8D10320FFF7A8FC0022AC
:101AA00008210448FFF752F9FEF704FC00BF80BD8F
:101AB0001C1C0008000C01400038014080B500AF3C
:101AC000FEF7F8FB0F48FEF727FD012208210E481C
:101AD000FFF73CF964210D48FFF708FE00BF032122
:101AE0000948FFF75BF90346002BF8D10320FFF705
:101AF0007EFC002208210448FFF728F9FEF7DAFBF4
:101B000000BF80BD381C0008000C014000380140B7
:101B10000D488546AFF300800C480D490D4A00235F
:101B200002E0D458C4500433C4188C42F9D30A4A92
:101B30000A4C002301E013600432A242FBD300F000
:101B400011F8FFF7C2FEFEE7005000200000002061
:101B50006C0000205C1C00086C00002008030020C2
:101B6000FEE7000070B500250C4E0D4CA41BA41020
:101B7000A54209D100F01AF800250A4E0A4CA41B10
:101B8000A410A54205D170BD56F8253098470135FF
:101B9000EEE756F8253098470135F2E7541C000867
:101BA000541C0008541C0008581C0008F8B500BF5D
:101BB000F8BC08BC9E467047F8B500BFF8BC08BC2E
:041BC0009E46704786
:101BC40008000601090006020A00010002000602DC
:101BD400030001000A0006020B000100205468659E
:101BE400726520497320466972652020496E20522F
:101BF40069676874205061726B0000002054686546
:101C04007265204973204669726520496E204C65CF
:101C14007466205061726B0020476173204C6561CB
:101C24006B61676520496E20526967687420506152
:101C3400726B000020476173204C65616B616765BE
:101C440020496E204C656674205061726B00000060
:041C5400550100082E
:041C5800310100084E
:101C5C00000000000102030400000000000000006E
:101C6C00010203040506070809000000000000003B
:101C7C00000801400000060001010000C119000825
:101C8C0001000000000801400100070001010000F4
:101C9C00151A0008020000000008014002000800AC
:101CAC0001010000691A000803000000000801404F
:0C1CBC000300090001010000BD1A00082F
:0400000508001B11C3
:00000001FF
