:020000040800F2
:100000000050002081190008D1190008D1190008FA
:10001000D1190008D1190008D1190008000000000A
:10002000000000000000000000000000D1190008DE
:10003000D119000800000000D1190008D1190008EA
:10004000D1190008D1190008D1190008D1190008E8
:10005000D1190008D1190008690600088D060008AA
:10006000B1060008D5060008F9060008D1190008F5
:10007000D1190008D1190008D1190008D1190008B8
:10008000D1190008D119000809060008D119000883
:10009000D1190008D1190008D11900081D0700085E
:1000A00039100008F10F00085D1000081510000855
:1000B000DD0A0008BD0B00088D0C0008D1190008EE
:1000C000D1190008D1190008D1190008210E000823
:1000D000D1190008291500084D15000871150008F0
:1000E000C5070008D119000800000000D119000858
:1000F000D1190008D1190008D1190008D119000838
:10010000D1190008D1190008D1190008D119000827
:10011000D1190008D1190008D1190008D119000817
:10012000D1190008D1190008D1190008D119000807
:1001300010B5054C237833B9044B13B10448AFF321
:1001400000800123237010BD1C000020000000006F
:100150001C1A000808B5034B1BB103490348AFF351
:10016000008008BD00000000200000201C1A0008CC
:1001700080B485B000AF78600023FB600BE0002303
:10018000BB6002E0BB680133BB60BB68FE2BF9D9E2
:10019000FB680133FB60FA687B689A42EFD300BFCB
:1001A0001437BD4680BC704780B500AF354B062282
:1001B0001A80344B04229A70324B0122DA70314992
:1001C000314800F07BFB2F4B05221A802D4B042277
:1001D0009A702C4B0122DA702A492B4800F06EFBF2
:1001E000284B04221A80274B04229A70254B0122A7
:1001F000DA702449244800F061FB224B00221A8067
:10020000204B04229A701F4B0122DA701D491E48B0
:1002100000F054FB1B4B01221A801A4B04229A70E7
:10022000184B0122DA701749174800F047FB154BAD
:1002300002221A80134B04229A70124B0122DA70A8
:100240001049114800F03AFB0E4B03221A800D4B67
:1002500004229A700B4B0122DA700A490A4800F016
:100260002DFB00220421084800F010FC002206218A
:10027000054800F00BFC00220521034800F006FCB5
:1002800000BF80BDD80100200008014080B500AF4C
:1002900001220421064800F0F9FB0220FFF768FF65
:1002A00000220421024800F0F1FB00BF80BD00BF26
:1002B0000008014080B500AF012000F041F800BF08
:1002C00080BD80B582B000AF03460A46FB7113467D
:1002D000BB71FB79012B08D1BB790F2B05D8BB79FA
:1002E000803BDBB2184600F02BF8FB79022B08D1DB
:1002F000BB790F2B05D8BB79403BDBB2184600F029
:100300001FF800BF0837BD4680BD80B500AF142080
:10031000FFF72EFFFFF748FF0F20FFF729FF02200E
:1003200000F00EF8282000F00BF8062000F008F886
:10033000802000F005F80F2000F002F800BF80BD1B
:1003400080B582B000AF0346FB71FB791B09DBB2BD
:1003500003F00103DBB21A460021334800F096FB9C
:10036000FB795B09DBB203F00103DBB21A46012122
:100370002D4800F08BFBFB799B09DBB203F00103F6
:10038000DBB21A460221284800F080FBFB79DB092A
:10039000DBB21A460321244800F078FB0022052135
:1003A000214800F073FB002206211F4800F06EFB7D
:1003B000FFF76CFFFB7903F00103DBB21A46002163
:1003C000194800F063FBFB795B08DBB203F0010323
:1003D000DBB21A460121144800F058FBFB799B0858
:1003E000DBB203F00103DBB21A4602210E4800F033
:1003F0004DFBFB79DB08DBB203F00103DBB21A46ED
:100400000321094800F042FB00220521064800F0C4
:100410003DFB00220621044800F038FBFFF736FFC1
:1004200000BF0837BD4680BD0008014080B582B0DE
:1004300000AF0346FB71FB791B09DBB203F001033C
:10044000DBB21A460021334800F020FBFB795B0940
:10045000DBB203F00103DBB21A4601212D4800F0A4
:1004600015FBFB799B09DBB203F00103DBB21A46F3
:100470000221284800F00AFBFB79DB09DBB21A46AF
:100480000321244800F002FB00220521214800F04E
:10049000FDFA012206211F4800F0F8FAFFF7F6FEE8
:1004A000FB7903F00103DBB21A460021194800F082
:1004B000EDFAFB795B08DBB203F00103DBB21A460D
:1004C0000121144800F0E2FAFB799B08DBB203F04B
:1004D0000103DBB21A4602210E4800F0D7FAFB797D
:1004E000DB08DBB203F00103DBB21A460321094843
:1004F00000F0CCFA00220521064800F0C7FA0122DC
:100500000621044800F0C2FAFFF7C0FE00BF08371A
:10051000BD4680BD0008014080B584B000AF786062
:100520000023FB601CE0FB680133FB607B685A1C06
:100530007A601B781846FFF779FFFB68102B04D10F
:1005400000210220FFF7BDFE0AE0FB68202B07D147
:10055000FFF7B0FE00210120FFF7B3FE0023FB6090
:100560007B681B78002BDED100BF1037BD4680BDF5
:1005700080B582B000AF78607B681A687B6804330E
:100580001946104600F09AF97B681A687B680833B0
:100590001946104600F092F900BF0837BD4680BDED
:1005A00080B582B000AF78607B6818687B689B88F4
:1005B0009BB20122194600F069FA7B6818687B68D3
:1005C0001B899BB20022194600F060FA00BF083771
:1005D000BD4680BD80B582B000AF78607B6818688A
:1005E0007B689B889BB20022194600F04FFA7B681B
:1005F00018687B689B889BB20022194600F046FA77
:1006000000BF0837BD4680BD80B500AF134B1B68E7
:10061000C3F34003DBB2012B0FD1104B5B6BC3F371
:100620000403DBB219460E4A0B465B000B449B00E9
:10063000134408331B6898470EE00A4B5B6BC3F307
:100640000403DBB21946064A0B465B000B449B00D1
:100650001344C8331B68984700BF80BD0024014085
:10066000380000200028014080B500AF054B1B6812
:100670009847054B5B69044A43F00103536100BF8F
:1006800080BD00BFDC0100200004014080B500AF48
:10069000054B5B689847054B5B69044A43F00203CE
:1006A000536100BF80BD00BFDC0100200004014099
:1006B00080B500AF054B9B689847054B5B69044AC2
:1006C00043F00403536100BF80BD00BFDC01002084
:1006D0000004014080B500AF054BDB689847054B2F
:1006E0005B69044A43F00803536100BF80BD00BF4B
:1006F000DC0100200004014080B500AF054B1B6900
:100700009847054B5B69044A43F01003536100BFEF
:1007100080BD00BFDC0100200004014080B500AFB7
:10072000264B5B6903F02003002B08D0234B5B6949
:10073000224A43F020035361214B5B6998471F4BCA
:100740005B6903F04003002B08D01C4B5B691B4A1C
:1007500043F0400353611A4B9B699847174B5B6901
:1007600003F08003002B08D0144B5B69134A43F05D
:1007700080035361124BDB699847104B5B6903F4AC
:100780008073002B08D00D4B5B690C4A43F48073D7
:1007900053610B4B1B6A9847084B5B6903F400736A
:1007A000002B08D0054B5B69044A43F40073536186
:1007B000034B5B6A984700BF80BD00BF0004014047
:1007C000DC01002080B500AF2D4B5B6903F4806332
:1007D000002B08D02A4B5B69294A43F4806353619C
:1007E000284B9B6A9847264B5B6903F40063002BF8
:1007F00008D0234B5B69224A43F400635361214BC9
:10080000DB6A98471E4B5B6903F48053002B08D0CA
:100810001B4B5B691A4A43F480535361194B1B6BA2
:100820009847174B5B6903F40053002B08D0144B17
:100830005B69134A43F400535361124B5B6B984757
:100840000F4B5B6903F48043002B08D00C4B5B69B2
:100850000B4A43F4804353610A4B9B6B9847084B08
:100860005B6903F40043002B08D0054B5B69044A25
:1008700043F400435361034BDB6B984700BF80BDDB
:1008800000040140DC01002080B485B000AF0346C5
:10089000FB80FB88072B03D8FB889B009BB206E0FC
:1008A000FB8803F57F5338339BB29B009BB2FB81DF
:1008B000FB8918461437BD4680BC704790B585B09B
:1008C00000AF786039607B686A4A934206D16A4B10
:1008D0009B69694A43F0040393612AE07B68674A95
:1008E000934206D1644B9B69634A43F008039361CA
:1008F0001FE07B68624A934206D15F4B9B695E4A68
:1009000043F01003936114E07B685E4A934206D182
:10091000594B9B69584A43F02003936109E07B6877
:10092000594A934205D1544B9B69534A43F04003C3
:1009300093613B681B889BB2072B01D87B6801E061
:100940007B680433FB603B681B889BB21846FFF74B
:100950009BFF03461A460F239340DA43FB681B684C
:100960001A40FB681A603B689B78DBB2002B0ED004
:100970003B689B78DBB2012B09D03B689B78DBB2EC
:10098000022B04D03B689B78DBB2032B56D13B682B
:100990009B78DBB2032B1CD13B681B889BB21846AB
:1009A000FFF772FF03461A46082303FA02F2FB68B8
:1009B0001B681A43FB681A603B681B889BB21A4687
:1009C00001239340DA437B68DB681A407B68DA6076
:1009D0004CE03B689B78DBB2022B1CD13B681B8848
:1009E0009BB21846FFF750FF03461A46082303FA46
:1009F00002F2FB681B681A43FB681A603B681B889D
:100A00009BB21A46012303FA02F27B68DB681A43A1
:100A10007B68DA602AE03B689B78DBB29C003B682D
:100A20001B889BB21846FFF72FFF034604FA03F218
:100A3000FB681B681A43FB681A6017E03B689B78E9
:100A4000DBB2043B9B003A68D278D2B243EA02049C
:100A50003B681B889BB21846FFF716FF034604FA53
:100A600003F2FB681B681A43FB681A6000BF143767
:100A7000BD4690BD0008014000100240000C01403E
:100A800000100140001401400018014080B483B000
:100A900000AF78600B467B8013467B707B78DBB2BF
:100AA000012B0BD17B889BB21A46012303FA02F279
:100AB0007B68DB681A437B68DA600AE07B889BB25C
:100AC0001A4601239340DA437B68DB681A407B684F
:100AD000DA6000BF0C37BD4680BC704780B582B07D
:100AE00000AF4FF080431B69C3F30003DBB2002B60
:100AF0000BD07A68137843F0010313704FF08042F3
:100B000013696FF3000313614EE04FF080431B69DC
:100B1000C3F34003DBB2002B0BD07A68137843F0A9
:100B2000020313704FF0804213696FF341031361A6
:100B30003AE04FF080431B69C3F38003DBB2002B24
:100B40000BD07A68137843F0040313704FF080429F
:100B500013696FF38203136126E04FF080431B6932
:100B6000C3F3C003DBB2002B0BD07A68137843F0D9
:100B7000080313704FF0804213696FF3C3031361CE
:100B800012E04FF080431B69C3F30013DBB2002B6C
:100B90000AD07A68137843F0100313704FF0804244
:100BA00013696FF304131361034BDB68786898478C
:100BB00000BF0837BD4680BD1802002080B582B056
:100BC00000AF304B1B69C3F30003DBB2002B0AD02C
:100BD0007A68137843F0010313702A4A13696FF39C
:100BE0000003136146E0274B1B69C3F34003DBB2EC
:100BF000002B0AD07A68137843F002031370214A5D
:100C000013696FF34103136134E01E4B1B69C3F397
:100C10008003DBB2002B0AD07A68137843F0040318
:100C20001370184A13696FF38203136122E0154BA6
:100C30001B69C3F3C003DBB2002B0AD07A681378B8
:100C400043F0080313700F4A13696FF3C303136172
:100C500010E00C4B1B69C3F30013DBB2002B09D06F
:100C60007A68137843F010031370064A13696FF320
:100C700004131361044BDB697868984700BF083799
:100C8000BD4680BD000400401802002080B582B03F
:100C900000AF334B1B69C3F30003DBB2002B0AD058
:100CA0007A68137843F0010313702D4A13696FF3C8
:100CB000000313614BE02A4B1B69C3F34003DBB213
:100CC000002B0AD07A68137843F002031370244A89
:100CD00013696FF34103136139E0214B1B69C3F3BF
:100CE0008003DBB2002B0FD07A68137843F0040343
:100CF00013701B4A13696FF3820313617A681378C8
:100D000043F00103137022E0154B1B69C3F3C003CA
:100D1000DBB2002B0AD07A68137843F00803137013
:100D20000F4A13696FF3C303136110E00C4B1B6987
:100D3000C3F30013DBB2002B09D07A68137843F0B9
:100D400010031370064A13696FF304131361054B04
:100D5000DB6A7868984700BF0837BD4680BD00BF92
:100D6000000800401802002080B400AF0A4B5B6806
:100D70009B0803F00303012B06D0012B02D3022BA7
:100D800004D005E0054B03E0054B01E0054BFFE710
:100D90001846BD4680BC70470010024000127A0021
:100DA0000024F400003FAB0180B500AFFFF7DCFF8B
:100DB0000146054B5B681B0903F00F03034AD35C34
:100DC00021FA03F3184680BD0010024008000020FD
:100DD00080B500AFFFF7E8FF0146054B5B681B0AD3
:100DE00003F00703034AD35C21FA03F3184680BDDE
:100DF000001002400000002080B500AFFFF7D4FFD4
:100E00000146054B5B68DB0A03F00703034AD35C2A
:100E100021FA03F3184680BD0010024000000020B4
:100E200080B582B000AF3B1D0549184600F00CF8B4
:100E3000044BDB683879984700BF0837BD4680BD52
:100E400000300140B801002080B483B000AF78606A
:100E500039603B689B68C3F30003DBB2002B0FD003
:100E60007A6813786FF3000313707A68137843F08D
:100E7000020313703A6813796FF38613137115E048
:100E80003B689B68C3F34003DBB2002B0ED07A684B
:100E9000137843F0010313707A6813786FF34103FA
:100EA00013703A6813796FF3C713137100BF0C37CF
:100EB000BD4680BC7047000080B584B000AF78604C
:100EC000064B1B68FB6007F10C0319460448FFF74B
:100ED000F5FC00BF1037BD4680BD00BF341A0008C6
:100EE0000008014090B583B000AF786039603B4A9C
:100EF0003B6814460FCB84E80F00394A7B681360C7
:100F00007B68384A934205D1374B9B69364A43F494
:100F1000006393613B681B881A467B689A627A6813
:100F2000136843F0800313603B685B881A467B6854
:100F3000DA623B689B881A467B681A633B685B7A77
:100F4000012B0ED0022B17D0002B1BD17A6813680F
:100F50006FF3461313607A6813686FF3041313601A
:100F600013E07A6813686FF3461313607A681368A6
:100F700043F01003136008E07A68136843F06003DD
:100F8000136002E000F098FB00BF7868FFF794FF61
:100F90007A68136843F0010313603B681B7A002BE7
:100FA0000BD17A68D36843F00103D3600F4B1B6801
:100FB0000E4A43F0007313600CE000BF7B681B69AE
:100FC000C3F30003DBB2002BF8D07A6813696FF328
:100FD0000003136100BF0C37BD4690BD54020020D2
:100FE00064020020002C01400010024000E100E0FB
:100FF00080B500AF054BDB689847054B1A6813694D
:101000006FF30003136100BF80BD00BF54020020D6
:101010006402002080B500AF054BDB689847054BA4
:101020001A6813696FF34103136100BF80BD00BFED
:10103000540200206402002080B500AF054BDB683D
:101040009847054B1A6813696FF30003136100BFDB
:1010500080BD00BF540200206402002080B500AFB4
:10106000054BDB689847054B1A6813696FF300035B
:10107000136100BF80BD00BF540200206402002045
:1010800080B586B000AF0346FB80FFF7B5FE024691
:101090000F4BA3FB02239B0C9BB2013B9BB23B81FA
:1010A000FB88013B9BB27B810023BB810023FB813A
:1010B00001233B7400237B7400237B6107F1080349
:1010C00019460448FFF70EFF00BF1837BD4680BD24
:1010D00083DE1B43002C0140B0B582B000AF7860C6
:1010E00039607B68A94A93420CD1A94A3B681446EF
:1010F0000FCB84E80F00A74B9B69A64A43F48043BB
:10110000936124E07B68A44A93420ED1A04B3A68D5
:1011100003F1100413460FCB84E80F009D4BDB69ED
:101120009C4A43F40033D36111E07B689B4A9342AD
:101130000DD1974B3A6803F1200413460FCB84E896
:101140000F00944BDB69934A43F48023D3617B689F
:10115000DB6843F400527B68DA607B68DB683A68DE
:10116000127912031A437B68DA607B681B693A685C
:10117000D27912031A437B681A613B685B7A002BB1
:101180000BD17B68DB6843F008027B68DA607B6820
:10119000DB6843F004027B68DA603B681B7A032B50
:1011A00026D801A252F823F0B9110008C71100088F
:1011B000D5110008E31100087B685B6923F44072D5
:1011C0007B685A6114E07B685B6943F480727B68DA
:1011D0005A610DE07B685B6943F400727B685A6179
:1011E00006E07B685B6943F440727B685A6100BF2C
:1011F0007B68DB683A68527952021A437B68DA608E
:101200003B689B79012B25D17B68604A934206D1CC
:10121000634B1B68624A43F02003136014E07B6851
:101220005D4A934206D15E4B1B685D4A43F0400322
:10123000136009E07B68594A934205D1584B1B68FB
:10124000574A43F0800313607B68DB6843F0200259
:101250007B68DA607B684D4A93422DD1FFF7CCFD65
:1012600002463B681B681B01B2FBF3F31C01FFF74E
:10127000C3FD024613469B0013449A001A443B6880
:101280001B689B00B2FBF3F5FFF7B6FD02463B6817
:101290001B681B01B2FBF3F3642202FB03F3EB1A9E
:1012A0001B01404AA2FB03235B0903F00F0344EA3E
:1012B00003027B689A6062E07B68374A93422DD1D3
:1012C000FFF786FD02463B681B681B01B2FBF3F388
:1012D0001C01FFF77DFD024613469B0013449A0054
:1012E0001A443B681B689B00B2FBF3F5FFF770FDE7
:1012F00002463B681B681B01B2FBF3F3642202FB4E
:1013000003F3EB1A1B01274AA2FB03235B0903F03B
:101310000F0344EA03027B689A6030E07B681F4A4F
:1013200093422CD1FFF754FD02463B681B681B011A
:10133000B2FBF3F31C01FFF74BFD024613469B0083
:1013400013449A001A443B681B689B00B2FBF3F5F8
:10135000FFF73EFD02463B681B681B01B2FBF3F33F
:10136000642202FB03F3EB1A1B010E4AA2FB0323C8
:101370005B0903F00F0344EA03027B689A60786814
:1013800000F05CF800BF0837BD46B0BD0038014032
:101390006802002000100240004400400048004065
:1013A00004E100E01F85EB5180B485B000AF7860A8
:1013B0000023FB607B681B4A934202D11A4BFB60FF
:1013C0000CE07B68194A934202D1194BFB6005E09F
:1013D0007B68184A934201D1174BFB60FB689B79ED
:1013E000002B07D100BF7B681B6803F02003002B94
:1013F000F9D002E0FB689B79012BFB685B79002B3D
:1014000004D17B685B68DBB29BB206E07B685B68FB
:10141000DBB29BB203F07F039BB218461437BD4684
:1014200080BC704700380140680200200044004042
:1014300078020020004800408802002080B584B077
:1014400000AF78602C4B1B68FB607B682B4A934293
:1014500015D12B4B9B692A4A43F00403936107F192
:101460000C0319462748FFF729FA274B1B68FB6036
:1014700007F10C0319462348FFF720FA38E07B6890
:10148000224A934218D11E4B9B691D4A43F0040324
:1014900093611F4B1B68FB6007F10C031946194849
:1014A000FFF70CFA1B4B1B68FB6007F10C03194696
:1014B0001448FFF703FA1BE07B68174A934217D1E1
:1014C0000F4B9B690E4A43F008039361134B1B6853
:1014D000FB6007F10C0319461148FFF7EFF9114BB8
:1014E0001B68FB6007F10C0319460D48FFF7E6F98E
:1014F00000BF1037BD4680BD381A000800380140D3
:1015000000100240000801403C1A0008004400405E
:10151000401A0008441A000800480040481A000811
:10152000000C01404C1A000880B500AF054B1B6849
:1015300003F02003002B02D0034BDB68984700BF69
:1015400080BD00BF003801406802002080B500AFB8
:10155000054B1B6803F02003002B02D0034BDB6913
:10156000984700BF80BD00BF0044004068020020D3
:1015700080B500AF054B1B6803F02003002B02D0A1
:10158000034BDB6A984700BF80BD00BF00480040A6
:101590006802002080B400AF404B414A1A603F4BC4
:1015A0000C229A803D4B04229A713C4B0122DA7145
:1015B0003A4B0D221A81394B04229A72374B012281
:1015C000DA72384B364A1A60364B0A229A80354B0B
:1015D00004229A71334B0122DA71324B0B221A81A9
:1015E000304B04229A722F4B0122DA722E4B2C4A76
:1015F0001A602D4B04229A802B4B04229A712A4B9D
:101600000122DA71284B05221A81274B04229A7293
:10161000254B0122DA72254B214A1A60234B0E22F8
:101620009A80224B04229A71204B0122DA711F4BBF
:101630000F221A811D4B04229A721C4B0122DA726E
:101640001B4B174A1A601A4B08229A80184B042227
:101650009A71174B0122DA71154B09221A81144B2A
:1016600004229A72124B0122DA72124B0C4A1A604F
:10167000104B06229A800F4B04229A710D4B0122C7
:10168000DA710C4B07221A810A4B04229A72094B19
:101690000122DA7200BFBD4680BC7047E402002020
:1016A000000C0140A8020020C0020020D802002047
:1016B000B4020020CC02002080B400AFFEE780B569
:1016C00000AF00F001F8FEE780B500AF2F4B9B693B
:1016D0002E4A43F0040393612C4B9B692B4A43F041
:1016E00008039361294B9B69284A43F010039361D7
:1016F000264B9B69254A43F001039361234B9B6969
:10170000224A43F480439361204BDB691F4A43F430
:101710000033D3611D4BDB691C4A43F48023D36142
:10172000FFF738FF1A48FEF723FF1A48FEF720FF9D
:101730001948FEF71DFF1948FEF71AFF1848FEF773
:1017400017FF1848FEF714FFFEF7DFFD164B4FF4A6
:1017500096421A60144B00221A71134B0022DA7160
:10176000114B00225A71104B00225A720E4B01226B
:101770009A710D4B00221A720B4B0C4ADA600A491F
:101780000B48FFF7A9FC00BF80BD00BF001002405E
:10179000E4020020A8020020B4020020CC020020B5
:1017A000C0020020D802002098020020B5170008CF
:1017B0000038014080B582B000AF5F48FFF7F4FD0C
:1017C0000346FB71FB79612B0FD15C48FEF7E8FE05
:1017D0005B48FEF7A1FE4FF45460FFF751FC5748F9
:1017E000FEF7F8FEFEF766FDA1E0FB79622B0FD154
:1017F0005448FEF7D5FE5448FEF78EFE4FF4546071
:10180000FFF73EFC4F48FEF7E5FEFEF753FD8EE086
:10181000FB79632B09D14D48FEF77EFE4FF45460EF
:10182000FFF72EFCFEF746FD81E0FB79642B09D122
:101830004748FEF771FE4FF45460FFF721FCFEF7B6
:1018400039FD74E0FB79652B0FD14248FEF7A8FE05
:101850004148FEF761FE4FF4FA60FFF711FC3D4886
:10186000FEF7B8FEFEF726FD61E0FB79662B0FD18F
:101870003A48FEF795FE3A48FEF74EFE4FF4FA60FE
:10188000FFF7FEFB3548FEF7A5FEFEF713FD4EE021
:10189000FB79672B0FD13348FEF782FE3248FEF703
:1018A0003BFE4FF4FA60FFF7EBFB2E48FEF792FE8B
:1018B000FEF700FD3BE0FB79682B0FD12B48FEF7CC
:1018C0006FFE2B48FEF728FE4FF4FA60FFF7D8FBB7
:1018D0002648FEF77FFEFEF7EDFC28E0FB796A2B39
:1018E0000FD11648FEF75CFE2248FEF715FE4FF4B6
:1018F000FA60FFF7C5FB1D48FEF76CFEFEF7DAFC49
:1019000015E0FB796B2B0FD10E48FEF749FE1A4804
:10191000FEF702FE4FF4FA60FFF7B2FB1348FEF742
:1019200059FEFEF7C7FC02E01448FEF7F5FD00BFC4
:101930000837BD4680BD00BF00380140C00200200E
:10194000501A0008D8020020641A0008741A00080F
:10195000841A0008E4020020941A0008B40200204F
:10196000A81A0008A8020020BC1A0008CC02002017
:10197000D01A0008E41A0008FC1A0008101B00081E
:101980000D488546AFF300800C480D490D4A0023F1
:1019900002E0D458C4500433C4188C42F9D30A4A24
:1019A0000A4C002301E013600432A242FBD300F092
:1019B00011F8FFF784FEFEE7005000200000002031
:1019C0001C0000202C1B00081C000020F00200203E
:1019D000FEE7000070B500250C4E0D4CA41BA410B2
:1019E000A54209D100F01AF800250A4E0A4CA41BA2
:1019F000A410A54205D170BD56F825309847013591
:101A0000EEE756F8253098470135F2E7241B000829
:101A1000241B0008241B0008281B0008F8B500BF81
:101A2000F8BC08BC9E467047F8B500BFF8BC08BCBF
:041A30009E46704717
:101A340008000601090006020A000100020006026D
:101A4400030001000A0006020B000100204649526F
:101A54004520464952452052494748540000000059
:101A640020464952452046495245204C454654009B
:101A7400204761732047617320524947485400004E
:101A84002047617320476173204C45465400000091
:101A9400205765617468657220486F7420526967C5
:101AA40068740000205765617468657220436F6C28
:101AB40064205269676874002057656174686572B0
:101AC40020486F74204C65667400000020576561DF
:101AD4007468657220436F6C64204C656674000002
:101AE400205761746572204C65616B616765205293
:101AF4006967687400000000205761746572204CA7
:101B040065616B616765204C656674002045766588
:101B14007279205468696E6773204F6B6579000091
:041B2400550100085F
:041B2800310100087F
:101B2C00000000000102030400000000000000009F
:0C1B3C0001020304050607080900000070
:040000050800198155
:00000001FF
