:020000040800F2
:1000000000500020E51600083517000835170008D5
:1000100035170008351700083517000800000000E4
:10002000000000000000000000000000351700087C
:1000300035170008000000003517000835170008C4
:100040003517000835170008351700083517000860
:100050003517000835170008690600088D060008E6
:10006000B1060008D5060008F90600083517000893
:100070003517000835170008351700083517000830
:10008000351700083517000809060008351700085D
:100090003517000835170008351700081D07000838
:1000A000010F0008B90E0008250F0008DD0E00083A
:1000B000DD0A0008BD0B00088D0C0008351700088C
:1000C000351700083517000835170008210E0008FD
:1000D0003517000899130008BD130008E113000844
:1000E000C507000835170008000000003517000894
:1000F00035170008351700083517000835170008B0
:10010000351700083517000835170008351700089F
:10011000351700083517000835170008351700088F
:10012000351700083517000835170008351700087F
:1001300010B5054C237833B9044B13B10448AFF321
:1001400000800123237010BD640000200000000027
:100150008017000808B5034B1BB103490348AFF3F0
:10016000008008BD00000000680000208017000823
:1001700080B485B000AF78600023FB600BE0002303
:10018000BB6002E0BB680133BB60BB68FE2BF9D9E2
:10019000FB680133FB60FA687B689A42EFD300BFCB
:1001A0001437BD4680BC704780B500AF354B062282
:1001B0001A80344B04229A70324B0122DA70314992
:1001C000314800F07BFB2F4B05221A802D4B042277
:1001D0009A702C4B0122DA702A492B4800F06EFBF2
:1001E000284B04221A80274B04229A70254B0122A7
:1001F000DA702449244800F061FB224B00221A8067
:10020000204B04229A701F4B0122DA701D491E48B0
:1002100000F054FB1B4B01221A801A4B04229A70E7
:10022000184B0122DA701749174800F047FB154BAD
:1002300002221A80134B04229A70124B0122DA70A8
:100240001049114800F03AFB0E4B03221A800D4B67
:1002500004229A700B4B0122DA700A490A4800F016
:100260002DFB00220421084800F010FC002206218A
:10027000054800F00BFC00220521034800F006FCB5
:1002800000BF80BD200200200008014080B500AF03
:1002900001220421064800F0F9FB0220FFF768FF65
:1002A00000220421024800F0F1FB00BF80BD00BF26
:1002B0000008014080B500AF012000F041F800BF08
:1002C00080BD80B582B000AF03460A46FB7113467D
:1002D000BB71FB79012B08D1BB790F2B05D8BB79FA
:1002E000803BDBB2184600F02BF8FB79022B08D1DB
:1002F000BB790F2B05D8BB79403BDBB2184600F029
:100300001FF800BF0837BD4680BD80B500AF142080
:10031000FFF72EFFFFF748FF0F20FFF729FF02200E
:1003200000F00EF8282000F00BF8062000F008F886
:10033000802000F005F80F2000F002F800BF80BD1B
:1003400080B582B000AF0346FB71FB791B09DBB2BD
:1003500003F00103DBB21A460021334800F096FB9C
:10036000FB795B09DBB203F00103DBB21A46012122
:100370002D4800F08BFBFB799B09DBB203F00103F6
:10038000DBB21A460221284800F080FBFB79DB092A
:10039000DBB21A460321244800F078FB0022052135
:1003A000214800F073FB002206211F4800F06EFB7D
:1003B000FFF76CFFFB7903F00103DBB21A46002163
:1003C000194800F063FBFB795B08DBB203F0010323
:1003D000DBB21A460121144800F058FBFB799B0858
:1003E000DBB203F00103DBB21A4602210E4800F033
:1003F0004DFBFB79DB08DBB203F00103DBB21A46ED
:100400000321094800F042FB00220521064800F0C4
:100410003DFB00220621044800F038FBFFF736FFC1
:1004200000BF0837BD4680BD0008014080B582B0DE
:1004300000AF0346FB71FB791B09DBB203F001033C
:10044000DBB21A460021334800F020FBFB795B0940
:10045000DBB203F00103DBB21A4601212D4800F0A4
:1004600015FBFB799B09DBB203F00103DBB21A46F3
:100470000221284800F00AFBFB79DB09DBB21A46AF
:100480000321244800F002FB00220521214800F04E
:10049000FDFA012206211F4800F0F8FAFFF7F6FEE8
:1004A000FB7903F00103DBB21A460021194800F082
:1004B000EDFAFB795B08DBB203F00103DBB21A460D
:1004C0000121144800F0E2FAFB799B08DBB203F04B
:1004D0000103DBB21A4602210E4800F0D7FAFB797D
:1004E000DB08DBB203F00103DBB21A460321094843
:1004F00000F0CCFA00220521064800F0C7FA0122DC
:100500000621044800F0C2FAFFF7C0FE00BF08371A
:10051000BD4680BD0008014080B584B000AF786062
:100520000023FB601CE0FB680133FB607B685A1C06
:100530007A601B781846FFF779FFFB68282B04D1F7
:1005400000210220FFF7BDFE0AE0FB68502B07D117
:10055000FFF7B0FE00210120FFF7B3FE0023FB6090
:100560007B681B78002BDED100BF1037BD4680BDF5
:1005700080B582B000AF78607B681A687B6804330E
:100580001946104600F09AF97B681A687B680833B0
:100590001946104600F092F900BF0837BD4680BDED
:1005A00080B582B000AF78607B6818687B689B88F4
:1005B0009BB20122194600F069FA7B6818687B68D3
:1005C0001B899BB20022194600F060FA00BF083771
:1005D000BD4680BD80B582B000AF78607B6818688A
:1005E0007B689B889BB20022194600F04FFA7B681B
:1005F00018687B689B889BB20022194600F046FA77
:1006000000BF0837BD4680BD80B500AF134B1B68E7
:10061000C3F34003DBB2012B0FD1104B5B6BC3F371
:100620000403DBB219460E4A0B465B000B449B00E9
:10063000134408331B6898470EE00A4B5B6BC3F307
:100640000403DBB21946064A0B465B000B449B00D1
:100650001344C8331B68984700BF80BD0024014085
:10066000800000200028014080B500AF054B1B68CA
:100670009847054B5B69044A43F00103536100BF8F
:1006800080BD00BF240200200004014080B500AFFF
:10069000054B5B689847054B5B69044A43F00203CE
:1006A000536100BF80BD00BF240200200004014050
:1006B00080B500AF054B9B689847054B5B69044AC2
:1006C00043F00403536100BF80BD00BF240200203B
:1006D0000004014080B500AF054BDB689847054B2F
:1006E0005B69044A43F00803536100BF80BD00BF4B
:1006F000240200200004014080B500AF054B1B69B7
:100700009847054B5B69044A43F01003536100BFEF
:1007100080BD00BF240200200004014080B500AF6E
:10072000264B5B6903F02003002B08D0234B5B6949
:10073000224A43F020035361214B5B6998471F4BCA
:100740005B6903F04003002B08D01C4B5B691B4A1C
:1007500043F0400353611A4B9B699847174B5B6901
:1007600003F08003002B08D0144B5B69134A43F05D
:1007700080035361124BDB699847104B5B6903F4AC
:100780008073002B08D00D4B5B690C4A43F48073D7
:1007900053610B4B1B6A9847084B5B6903F400736A
:1007A000002B08D0054B5B69044A43F40073536186
:1007B000034B5B6A984700BF80BD00BF0004014047
:1007C0002402002080B500AF2D4B5B6903F48063E9
:1007D000002B08D02A4B5B69294A43F4806353619C
:1007E000284B9B6A9847264B5B6903F40063002BF8
:1007F00008D0234B5B69224A43F400635361214BC9
:10080000DB6A98471E4B5B6903F48053002B08D0CA
:100810001B4B5B691A4A43F480535361194B1B6BA2
:100820009847174B5B6903F40053002B08D0144B17
:100830005B69134A43F400535361124B5B6B984757
:100840000F4B5B6903F48043002B08D00C4B5B69B2
:100850000B4A43F4804353610A4B9B6B9847084B08
:100860005B6903F40043002B08D0054B5B69044A25
:1008700043F400435361034BDB6B984700BF80BDDB
:10088000000401402402002080B485B000AF03467C
:10089000FB80FB88072B03D8FB889B009BB206E0FC
:1008A000FB8803F57F5338339BB29B009BB2FB81DF
:1008B000FB8918461437BD4680BC704790B585B09B
:1008C00000AF786039607B686A4A934206D16A4B10
:1008D0009B69694A43F0040393612AE07B68674A95
:1008E000934206D1644B9B69634A43F008039361CA
:1008F0001FE07B68624A934206D15F4B9B695E4A68
:1009000043F01003936114E07B685E4A934206D182
:10091000594B9B69584A43F02003936109E07B6877
:10092000594A934205D1544B9B69534A43F04003C3
:1009300093613B681B889BB2072B01D87B6801E061
:100940007B680433FB603B681B889BB21846FFF74B
:100950009BFF03461A460F239340DA43FB681B684C
:100960001A40FB681A603B689B78DBB2002B0ED004
:100970003B689B78DBB2012B09D03B689B78DBB2EC
:10098000022B04D03B689B78DBB2032B56D13B682B
:100990009B78DBB2032B1CD13B681B889BB21846AB
:1009A000FFF772FF03461A46082303FA02F2FB68B8
:1009B0001B681A43FB681A603B681B889BB21A4687
:1009C00001239340DA437B68DB681A407B68DA6076
:1009D0004CE03B689B78DBB2022B1CD13B681B8848
:1009E0009BB21846FFF750FF03461A46082303FA46
:1009F00002F2FB681B681A43FB681A603B681B889D
:100A00009BB21A46012303FA02F27B68DB681A43A1
:100A10007B68DA602AE03B689B78DBB29C003B682D
:100A20001B889BB21846FFF72FFF034604FA03F218
:100A3000FB681B681A43FB681A6017E03B689B78E9
:100A4000DBB2043B9B003A68D278D2B243EA02049C
:100A50003B681B889BB21846FFF716FF034604FA53
:100A600003F2FB681B681A43FB681A6000BF143767
:100A7000BD4690BD0008014000100240000C01403E
:100A800000100140001401400018014080B483B000
:100A900000AF78600B467B8013467B707B78DBB2BF
:100AA000012B0BD17B889BB21A46012303FA02F279
:100AB0007B68DB681A437B68DA600AE07B889BB25C
:100AC0001A4601239340DA437B68DB681A407B684F
:100AD000DA6000BF0C37BD4680BC704780B582B07D
:100AE00000AF4FF080431B69C3F30003DBB2002B60
:100AF0000BD07A68137843F0010313704FF08042F3
:100B000013696FF3000313614EE04FF080431B69DC
:100B1000C3F34003DBB2002B0BD07A68137843F0A9
:100B2000020313704FF0804213696FF341031361A6
:100B30003AE04FF080431B69C3F38003DBB2002B24
:100B40000BD07A68137843F0040313704FF080429F
:100B500013696FF38203136126E04FF080431B6932
:100B6000C3F3C003DBB2002B0BD07A68137843F0D9
:100B7000080313704FF0804213696FF3C3031361CE
:100B800012E04FF080431B69C3F30013DBB2002B6C
:100B90000AD07A68137843F0100313704FF0804244
:100BA00013696FF304131361034BDB68786898478C
:100BB00000BF0837BD4680BD6002002080B582B00E
:100BC00000AF304B1B69C3F30003DBB2002B0AD02C
:100BD0007A68137843F0010313702A4A13696FF39C
:100BE0000003136146E0274B1B69C3F34003DBB2EC
:100BF000002B0AD07A68137843F002031370214A5D
:100C000013696FF34103136134E01E4B1B69C3F397
:100C10008003DBB2002B0AD07A68137843F0040318
:100C20001370184A13696FF38203136122E0154BA6
:100C30001B69C3F3C003DBB2002B0AD07A681378B8
:100C400043F0080313700F4A13696FF3C303136172
:100C500010E00C4B1B69C3F30013DBB2002B09D06F
:100C60007A68137843F010031370064A13696FF320
:100C700004131361044BDB697868984700BF083799
:100C8000BD4680BD000400406002002080B582B0F7
:100C900000AF334B1B69C3F30003DBB2002B0AD058
:100CA0007A68137843F0010313702D4A13696FF3C8
:100CB000000313614BE02A4B1B69C3F34003DBB213
:100CC000002B0AD07A68137843F002031370244A89
:100CD00013696FF34103136139E0214B1B69C3F3BF
:100CE0008003DBB2002B0FD07A68137843F0040343
:100CF00013701B4A13696FF3820313617A681378C8
:100D000043F00103137022E0154B1B69C3F3C003CA
:100D1000DBB2002B0AD07A68137843F00803137013
:100D20000F4A13696FF3C303136110E00C4B1B6987
:100D3000C3F30013DBB2002B09D07A68137843F0B9
:100D400010031370064A13696FF304131361054B04
:100D5000DB6A7868984700BF0837BD4680BD00BF92
:100D6000000800406002002080B400AF0A4B5B68BE
:100D70009B0803F00303012B06D0012B02D3022BA7
:100D800004D005E0054B03E0054B01E0054BFFE710
:100D90001846BD4680BC70470010024000127A0021
:100DA0000024F400003FAB0180B500AFFFF7DCFF8B
:100DB0000146054B5B681B0903F00F03034AD35C34
:100DC00021FA03F3184680BD0010024008000020FD
:100DD00080B500AFFFF7E8FF0146054B5B681B0AD3
:100DE00003F00703034AD35C21FA03F3184680BDDE
:100DF000001002400000002080B500AFFFF7D4FFD4
:100E00000146054B5B68DB0A03F00703034AD35C2A
:100E100021FA03F3184680BD0010024000000020B4
:100E200080B582B000AF3B1D0549184600F00CF8B4
:100E3000044BDB683879984700BF0837BD4680BD52
:100E4000003001400002002080B483B000AF786021
:100E500039603B689B68C3F30003DBB2002B0FD003
:100E60007A6813786FF3000313707A68137843F08D
:100E7000020313703A6813796FF38613137115E048
:100E80003B689B68C3F34003DBB2002B0ED07A684B
:100E9000137843F0010313707A6813786FF34103FA
:100EA00013703A6813796FF3C713137100BF0C37CF
:100EB000BD4680BC7047000080B500AF054BDB68C5
:100EC0009847054B1A6813696FF30003136100BF5D
:100ED00080BD00BF9C020020AC02002080B500AFA6
:100EE000054BDB689847054B1A6813696FF341039C
:100EF000136100BF80BD00BF9C020020AC02002037
:100F000080B500AF054BDB689847054B1A6813693D
:100F10006FF30003136100BF80BD00BF9C0200207F
:100F2000AC02002080B500AF054BDB689847054B4D
:100F30001A6813696FF30003136100BF80BD00BF1F
:100F40009C020020AC020020B0B582B000AF7860F7
:100F500039607B68A94A93420CD1A94A3B68144680
:100F60000FCB84E80F00A74B9B69A64A43F480434C
:100F7000936124E07B68A44A93420ED1A04B3A6867
:100F800003F1100413460FCB84E80F009D4BDB697F
:100F90009C4A43F40033D36111E07B689B4A93423F
:100FA0000DD1974B3A6803F1200413460FCB84E828
:100FB0000F00944BDB69934A43F48023D3617B6831
:100FC000DB6843F400527B68DA607B68DB683A6870
:100FD000127912031A437B68DA607B681B693A68EE
:100FE000D27912031A437B681A613B685B7A002B43
:100FF0000BD17B68DB6843F008027B68DA607B68B2
:10100000DB6843F004027B68DA603B681B7A032BE1
:1010100026D801A252F823F0291000083710000842
:1010200045100008531000087B685B6923F4407288
:101030007B685A6114E07B685B6943F480727B686B
:101040005A610DE07B685B6943F400727B685A610A
:1010500006E07B685B6943F440727B685A6100BFBD
:101060007B68DB683A68527952021A437B68DA601F
:101070003B689B79012B25D17B68604A934206D15E
:10108000634B1B68624A43F02003136014E07B68E3
:101090005D4A934206D15E4B1B685D4A43F04003B4
:1010A000136009E07B68594A934205D1584B1B688D
:1010B000574A43F0800313607B68DB6843F02002EB
:1010C0007B68DA607B684D4A93422DD1FFF794FE2E
:1010D00002463B681B681B01B2FBF3F31C01FFF7E0
:1010E0008BFE024613469B0013449A001A443B6849
:1010F0001B689B00B2FBF3F5FFF77EFE02463B68E0
:101100001B681B01B2FBF3F3642202FB03F3EB1A2F
:101110001B01404AA2FB03235B0903F00F0344EACF
:1011200003027B689A6062E07B68374A93422DD164
:10113000FFF74EFE02463B681B681B01B2FBF3F350
:101140001C01FFF745FE024613469B0013449A001C
:101150001A443B681B689B00B2FBF3F5FFF738FEAF
:1011600002463B681B681B01B2FBF3F3642202FBDF
:1011700003F3EB1A1B01274AA2FB03235B0903F0CD
:101180000F0344EA03027B689A6030E07B681F4AE1
:1011900093422CD1FFF71CFE02463B681B681B01E3
:1011A000B2FBF3F31C01FFF713FE024613469B004C
:1011B00013449A001A443B681B689B00B2FBF3F58A
:1011C000FFF706FE02463B681B681B01B2FBF3F308
:1011D000642202FB03F3EB1A1B010E4AA2FB03235A
:1011E0005B0903F00F0344EA03027B689A607868A6
:1011F00000F05CF800BF0837BD46B0BD00380140C4
:10120000B0020020001002400044004000480040AE
:1012100004E100E01F85EB5180B485B000AF786039
:101220000023FB607B681B4A934202D11A4BFB6090
:101230000CE07B68194A934202D1194BFB6005E030
:101240007B68184A934201D1174BFB60FB689B797E
:10125000002B07D100BF7B681B6803F02003002B25
:10126000F9D002E0FB689B79012BFB685B79002BCE
:1012700004D17B685B68DBB29BB206E07B685B688D
:10128000DBB29BB203F07F039BB218461437BD4616
:1012900080BC704700380140B0020020004400408C
:1012A000C002002000480040D002002080B584B079
:1012B00000AF78602C4B1B68FB607B682B4A934225
:1012C00015D12B4B9B692A4A43F00403936107F124
:1012D0000C0319462748FFF7F1FA274B1B68FB6000
:1012E00007F10C0319462348FFF7E8FA38E07B685A
:1012F000224A934218D11E4B9B691D4A43F00403B6
:1013000093611F4B1B68FB6007F10C0319461948DA
:10131000FFF7D4FA1B4B1B68FB6007F10C0319465F
:101320001448FFF7CBFA1BE07B68174A934217D1AA
:101330000F4B9B690E4A43F008039361134B1B68E4
:10134000FB6007F10C0319461148FFF7B7FA114B80
:101350001B68FB6007F10C0319460D48FFF7AEFA56
:1013600000BF1037BD4680BD981700080038014007
:1013700000100240000801409C1700080044004093
:10138000A0170008A417000800480040A81700088C
:10139000000C0140AC17000880B500AF054B1B687E
:1013A00003F02003002B02D0034BDB68984700BFFB
:1013B00080BD00BF00380140B002002080B500AF02
:1013C000054B1B6803F02003002B02D0034BDB69A5
:1013D000984700BF80BD00BF00440040B00200201D
:1013E00080B500AF054B1B6803F02003002B02D033
:1013F000034BDB6A984700BF80BD00BF0048004038
:10140000B002002080B500AF00F002F8FEE7000057
:1014100080B500AF2E4B9B692D4A43F004039361C6
:101420002B4B9B692A4A43F008039361284B9B6925
:10143000274A43F010039361254B9B69244A43F0EC
:1014400001039361224B9B69214A43F480439361DA
:101450001F4BDB691E4A43F40033D3611C4BDB692D
:101460001B4A43F48023D3611A48FFF781F81A48D6
:10147000FFF77EF81948FFF77BF81948FFF778F86F
:101480001848FFF775F81848FFF772F8FEF73DFFA8
:10149000164B4FF496421A60144B00221A71134BEC
:1014A0000022DA71114B00225A71104B00225A723D
:1014B0000E4B01229A710D4B00221A720B4B0C4AF3
:1014C000DA600A490B48FFF73FFD00BF80BD00BF4F
:1014D000001002401C000020280000204C000020CA
:1014E000580000203400002040000020E0020020CE
:1014F000F91400080038014080B582B000AF674899
:10150000FFF78AFE0346FB71FB79613B192B00F262
:10151000A78001A252F823F0811500089715000852
:10152000AD150008BD150008CD150008E31500082D
:10153000F91500080F1600086116000825160008A6
:101540003B160008611600086116000861160008C5
:10155000611600086116000861160008611600088F
:10156000611600086116000861160008611600087F
:10157000611600086116000861160008511600087F
:101580004748FFF70DF801210120FEF79AFE454874
:10159000FEF7C2FF65E04448FFF702F80121012091
:1015A000FEF78FFE4148FEF7B7FF5AE00121012008
:1015B000FEF787FE3E48FEF7AFFF52E00121012013
:1015C000FEF77FFE3B48FEF7A7FF4AE03A48FEF7EA
:1015D000E7FF01210120FEF774FE3848FEF79CFF6B
:1015E0003FE03748FEF7DCFF01210120FEF769FEEE
:1015F0003448FEF791FF34E03348FEF7D1FF012174
:101600000120FEF75EFE3148FEF786FF29E03048F4
:10161000FEF7C6FF01210120FEF753FE2D48FEF71D
:101620007BFF1EE01E48FEF7BBFF01210120FEF7F5
:1016300048FE2948FEF770FF13E01B48FEF7B0FF95
:1016400001210120FEF73DFE2448FEF765FF08E07A
:1016500001210120FEF735FE2148FEF75DFF00E085
:1016600000BF1B48FEF7B6FF1948FEF7B3FF184846
:10167000FEF7B0FF1448FEF7ADFF1148FEF7AAFFD2
:101680000D48FEF7A7FF0648FEF7A4FF0648FEF741
:10169000A1FF00BF0837BD4680BD00BF0038014034
:1016A00034000020B017000840000020DC170008BC
:1016B00008180008341800081C00002060180008F2
:1016C0004C0000208C18000828000020B8180008E2
:1016D00058000020E4180008101900083C19000800
:1016E000641900080D488546AFF300800C480D4989
:1016F0000D4A002302E0D458C4500433C4188C426D
:10170000F9D30A4A0A4C002301E013600432A242D2
:10171000FBD300F011F8FFF775FEFEE70050002044
:1017200000000020640000209819000864000020D8
:10173000F0020020FEE7000070B500250C4E0D4CB5
:10174000A41BA410A54209D100F01AF800250A4EE6
:101750000A4CA41BA410A54205D170BD56F8253033
:1017600098470135EEE756F8253098470135F2E7FE
:1017700090190008901900089019000894190008A1
:10178000F8B500BFF8BC08BC9E467047F8B500BF6E
:08179000F8BC08BC9E4670473E
:10179800090006020A000100020006020300010017
:1017A8000A0006020B0001003D3D3D3D3D3D3D3D2B
:1017B8003D3D3D3D3D3D3D46495245205249474806
:1017C800543D3D3D3D3D3D3D3D3D3D3D3D3D3D3D2A
:1017D800000000003D3D3D3D3D3D3D3D3D3D3D3D25
:1017E8003D3D3D3D46495245204C4546543D3D3DD5
:1017F8003D3D3D3D3D3D3D3D3D3D3D3D0000000005
:101808003D3D3D3D3D3D3D3D3D3D3D3D3D3D3D3D00
:101818004761732052494748543D3D3D3D3D3D3D5C
:101828003D3D3D3D3D3D3D3D000000003D3D3D3DD4
:101838003D3D3D3D3D3D3D3D3D3D3D3D4761732089
:101848004C4546543D3D3D3D3D3D3D3D3D3D3D3D89
:101858003D3D3D3D000000003D3D3D3D3D3D3D3DA4
:101868003D3D3D3D5765617468657220486F742041
:1018780052696768743D3D3D3D3D3D3D3D3D3D3DC3
:10188800000000003D3D3D3D3D3D3D3D3D3D3D575A
:1018980065617468657220436F6C6420526967687B
:1018A800743D3D3D3D3D3D3D3D3D3D3D000000001D
:1018B8003D3D3D3D3D3D3D3D3D3D3D3D57656174B3
:1018C80068657220486F74204C6566743D3D3D3DE7
:1018D8003D3D3D3D3D3D3D3D000000003D3D3D3D24
:1018E8003D3D3D3D3D3D3D3D576561746865722018
:1018F800436F6C64204C6566743D3D3D3D3D3D3D08
:101908003D3D3D3D000000003D3D3D3D3D3D3D3DF3
:101918003D3D3D5761746572204C65616B6167653B
:101928002052696768743D3D3D3D3D3D3D3D3D3D2F
:10193800000000003D3D3D3D3D3D3D3D3D3D3D57A9
:1019480061746572204C65616B616765204C6566E2
:10195800743D3D3D3D3D3D3D3D3D3D003D3D3D3DB5
:101968003D3D3D3D3D3D3D455645525920546869F4
:101978006E67204973204F6B65793D3D3D3D3D3D88
:081988003D3D3D3D0000000063
:0419900055010008F5
:041994003101000815
:101998000000000001020304000000000000000035
:1019A800010203040506070809000000000C0140B5
:1019B8000C0004010D000401000C01400A000401A0
:1019C8000B000401000C014004000401050004019F
:1019D800000C01400E0004010F000401000C01403E
:1019E8000800040109000401000C0140060004017C
:0419F80007000401DF
:04000005080016E5F4
:00000001FF
